:020000040800F2
:100000004009002029020008CF24000835210008FB
:10001000CD2400082F030008B92A000800000000C2
:10002000000000000000000000000000CD270008D4
:100030003103000800000000D1240008CF27000889
:10004000430200084302000843020008430200087C
:10005000430200084302000843020008430200086C
:10006000430200084302000843020008430200085C
:10007000430200084302000843020008430200084C
:10008000430200084302000843020008430200083C
:10009000430200084302000843020008430200082C
:1000A000430200087D280008712800084302000868
:1000B000430200084302000843020008430200080C
:1000C00043020008430200084302000843020008FC
:1000D00043020008430200084302000843020008EC
:1000E00043020008430200084302000843020008DC
:1000F00043020008430200084302000843020008CC
:1001000043020008430200084302000843020008BB
:1001100043020008430200088928000895280008C7
:10012000430200084302000843020008430200089B
:10013000430200084302000843020008430200088B
:10014000430200084302000843020008430200087B
:10015000430200084302000843020008430200086B
:10016000430200084302000843020008430200085B
:1001700043020008430200080000000000000000E5
:10018000430200084302000800F002F800F03CF8C7
:100190000AA090E8000C82448344AAF10107DA45E2
:1001A00001D100F031F8AFF2090EBAE80F0013F0F8
:1001B000010F18BFFB1A43F001031847A4290000E0
:1001C000C4290000103A24BF78C878C1FAD8520771
:1001D00024BF30C830C144BF04680C6070470000C1
:1001E0000023002400250026103A28BF78C1FBD840
:1001F000520728BF30C148BF0B6070471FB502F0DF
:1002000085FC1FBD10B510BD00F058F81146FFF772
:10021000F5FF02F062FC00F076F803B4FFF7F2FF9E
:1002200003BC00F07DF800000948804709480047FA
:10023000FEE7FEE7FEE7FEE7FEE7FEE7FEE7FEE796
:10024000FEE7FEE704480549054A064B70470000F3
:1002500061280008890100084003002040090020AF
:1002600040050020400500204FF0000200B5134675
:1002700094469646203922BFA0E80C50A0E80C50C6
:10028000B1F12001BFF4F7AF090728BFA0E80C5077
:1002900048BF0CC05DF804EB890028BF40F8042B70
:1002A00008BF704748BF20F8022B11F0804F18BFDD
:1002B00000F8012B7047704770477047754600F093
:1002C0002BF8AE4605006946534620F007008546E8
:1002D00018B020B5FFF7B6FFBDE820404FF000068C
:1002E0004FF000074FF000084FF0000B21F007011E
:1002F000AC46ACE8C009ACE8C009ACE8C009ACE861
:10030000C0098D46704710B50446AFF30080204603
:10031000BDE81040FFF781BF00487047E0020020B1
:1003200001491820ABBEFEE7260002007047FEE739
:10033000704772B6FEE700002DE9F047044690F8DA
:1003400050009AB00E464FF00009012816D0012047
:1003500084F85000002515951695324F2068B84254
:1003600010D1DFF8C480CDF80080404601F0F1FEE6
:100370008246206801F0EDFE60B10EE002201AB066
:10038000BDE8F087606D40F02000606584F8505053
:100390000120F4E7BAF1000F0AD0606D40F02000B0
:1003A00060654FF0010900BF84F850504846E6E709
:1003B0001E4831681E4A0029816840F61F7321F4E7
:1003C00060411CD094F830C041EA4C31D6F804C0EA
:1003D00041EA0C018160B968D8F8087001F00101A8
:1003E00007F001079268394302F001021143DBD1A3
:1003F000B2683168114382689A4311430FE081600B
:10040000B968D8F8086001F0010106F001069268A9
:10041000314302F001021143C6D1816899438160E2
:10042000C2E7000000000450000104500003045023
:10043000000204502DE9F84F00270446009790F879
:100440005000DFF8B8930D46B846012811D00126B8
:1004500084F85060206801F078FE60B1606D40F073
:10046000200060655FF0010784F85080384600F096
:10047000DDB90220FBE76868052808D8022825D0E6
:10048000032825D0042825D0052825D0062021685A
:100490000C2303EA901319442A680B6B00F01F0029
:1004A0004FF01F0C0CFA00FCC2F3846223EA0C0329
:1004B000824013430B63206801F047FE82462068A8
:1004C00001F03FFE5AEA000009D09AE00C20DEE776
:1004D0001220DCE71820DAE74FF48070D7E7AA682B
:1004E0002968206801F039FE20686969C268C2F392
:1004F000C102520091402A69042A0FD000EB820009
:100500002B68026EDFF8F8C203F0F84302EA0C022F
:100510000B431A4342F00041016672E0002101F0F2
:100520000AFE400320684FF0000172D001F003FE84
:1005300090FAA0F0B0FA80F1286842036ED090FAE9
:10054000A0F0B0FA80F0814204D100221146206868
:1005500001F012FE0121206801F0EDFD400320684A
:100560004FF001015DD001F0E6FD90FAA0F0B0FA85
:1005700080F12868420359D090FAA0F0B0FA80F0D8
:10058000814204D100220121206801F0F5FD022101
:10059000206801F0D0FD400320684FF0020148D0F0
:1005A00001F0C9FD90FAA0F0B0FA80F1286842038A
:1005B00044D090FAA0F0B0FA80F0814204D1002239
:1005C0000221206801F0D8FD0321206801F0B3FD6D
:1005D000400320684FF0030133D001F0ACFD90FAE6
:1005E000A0F0B0FA80F1286842032FD090FAA0F072
:1005F000B0FA80F0814204D100220321206801F08A
:10060000BBFD2068816811F0010F22D0ABE000E053
:1006100004E001F090FDC0F384618DE7C0F38460D5
:1006200091E701F088FDC0F38461A2E7C0F3846024
:10063000A6E701F080FDC0F38461B7E7C0F38460F2
:10064000BBE701F078FDC0F38461CCE7C0F38460C0
:10065000D0E72A7B296850F8B03FC1F3120C23EA97
:100660000C0302F0180C674A22FA0CF20A401343FA
:100670000360E968494576D1286841031BD090FAA8
:10068000A0F1B1FA81F1491C01F01F0109294FEADB
:10069000403131D8002911D090FAA0F1B1FA81F19E
:1006A00001F1010101F01F0106FA01F609D100BFB5
:1006B000C0F3846109E0C0F38461E4E7C0F38461BE
:1006C000EEE790FAA0F1B1FA81F101F1010101F038
:1006D0001F0146EA816102D1C0F3846003E090FA11
:1006E000A0F0B0FA80F000F1010000F01F0000EB74
:1006F000400041EA005132E000290ED090FAA0F10A
:10070000B1FA81F101F1010101F01F0106FA01F6D0
:1007100006D100BFC0F3846106E0C0F38461F1E755
:1007200090FAA0F1B1FA81F101F1010101F01F018C
:1007300046EA816102D1C0F3846003E090FAA0F040
:10074000B0FA80F000F1010000F01F002E4A00EB2B
:10075000400002EB005041EA000141F00071AA683C
:10076000206801F0FAFC29482A6802423FF47CAE76
:1007700027488168274E284B284D01F0E071B2428E
:100780001DD10E021BD422689A4202D0AA427FF4E5
:100790006BAE826841F4000122F0E0720A4382608D
:1007A0001F4820490068B0FBF1F0401C00EB4000FE
:1007B000800000E0401E00900028FBD154E61A4E55
:1007C000B24209D1CE0107D422689A4201D0AA428E
:1007D000F4D141F080710AE06FF00045EA42EDD1BA
:1007E0004A02EBD422689A42E8D141F4800182683F
:1007F00022F0E0720A43826036E6000000007F408B
:1008000000F0FF03FFFF0700000020FE000008804B
:1008100000030450000052C70000045000020450BE
:100820000C000020400D0300000084CB18BCBDE884
:10083000E08F0000F8B54FF0000504002E4600954B
:1008400002D0606D10B107E00120F8BD204600F035
:10085000D3F8A66584F8506020688168C1F34071C0
:1008600019B181685A4A1140816020688168C1F3DA
:10087000007189B98168574A114041F08051816007
:10088000554856490068B0FBF1F04000801C00E07C
:10089000401E00900028FBD120688168C1F30071E0
:1008A00041B9616D41F010016165A16D41F0010137
:1008B000A165012501F049FC616DC90600D430B184
:1008C000606D40F01000606501252846F8BD606D40
:1008D00020F4807040F0020060652068806810F0AD
:1008E000010F15D13E4880683E4900F0010089683B
:1008F00001F0010108433C49896801F00101084306
:1009000006D13A4960688A6822F47C1202438A6000
:10091000E168606B627E0843A16841EA42310843A6
:1009200094F8201040EA0140012904D1A18C304AFA
:1009300002EB41410843A16A29B101F47071E26AF6
:10094000014342EA01002268D1682A4B1940014361
:10095000D160206801F0F5FBA8B9207E94F8301032
:10096000800340EA41012068C26844F202039A43CE
:100970000A43C26094F8380001280CD0206801694D
:1009800021F001010161206901282068016B21F03B
:100990000F0111D013E0D4E90F010843D4E911127B
:1009A0001143084321680A6940F2FC739A431043DB
:1009B00040F001000861E6E7E269521E114301635D
:1009C000606D20F0020040F0010060657DE70000EE
:1009D000C0FFFF5FC0FFFF7F0C000020400D030041
:1009E00000000450000104500002045000030450B1
:1009F0000000FEFF07C0F0FF10B5A8B004461421A8
:100A000022A8FFF731FC88216846FFF72DFC1C491E
:100A10002068884231D14FF48040009080031E90BE
:100A20000120019002901020039007200224CDE9BC
:100A300004048801CDE90640684600F0CBFB08B10C
:100A4000FFF777FC0F48C16C41F40051C164C16CE1
:100A500001F400512791C16C41F00101C164C06CE7
:100A600022A900F0010027900B20CDE922400020B0
:100A700024904FF0904000F007F828B010BD00001F
:100A800000000450001002402DE9F04FDFF8EC9117
:100A900000220127A9F1040B85B003254FF00F0CAC
:100AA00009F1040AABF1040EE0E000BF07FA02F41A
:100AB00016EA04037ED00E7906F00306012E01D05B
:100AC000022E1FD186680096560005FA06F8049695
:100AD000009E26EA08060096D1F80C80049E08FACB
:100AE00006F8009E48EA0608C0F80880466891F8B3
:100AF0000480A643C8F3001808FA02F848EA06087A
:100B0000C0F80480D1F804806FEA0806B6070AD15D
:100B1000C66AA643C8F3C00494403443C4620C7947
:100B2000E443A4070AD0C4684FEA420805FA08F66D
:100B3000B4438E6806FA08F62643C6600C7904F0C2
:100B40000304022C11D1D40800EB84060296D6F8D7
:100B500020805407E60E0CFA06F428EA04080C6913
:100B6000B440029E44EA08043462046856000296C7
:100B700005FA06F6B4430E7906F00308029E08FA59
:100B800006F848EA0408C0F800804C6814F4403FB6
:100B90006BD03B4C266E46F001062666246E22F092
:100BA000030604F001040094364C34440294A46813
:100BB000960700E059E04FEA16780CFA08F6B443BD
:100BC000B0F1904F04D0304EB04203D101261BE06B
:100BD000002619E02D4EB04201D1022614E02C4E21
:100BE000B04201D103260FE02A4EB04201D10426C3
:100BF0000AE0294EB04201D1052605E0274EB04259
:100C000001D1062600E0072606FA08F62643029CD4
:100C1000A660D9F800404E46D1F804809C435FEAB4
:100C2000C82800D51C433460DAF800405646D1F895
:100C300004809C435FEA882800D51C433460DBF8BD
:100C400000405E46D1F804809C435FEA883800D5B6
:100C50001C433460DEF800407646D1F804809C43A3
:100C60005FEAC83800D51C433460521C0B681E462E
:100C7000D3407FF41BAF05B000F012B80804014068
:100C80000010024000000140000400480008004835
:100C9000000C0048001000480014004800180048EC
:100CA00030BCBDE8C08F0AB1816170478162704776
:100CB00001488068704700000000002090F8412043
:100CC000202A24D190F84020012A20D0012280F847
:100CD0004020242280F841200268136823F0010399
:100CE00013600268136823F480531360026813686A
:100CF0000B43136001680A6842F001020A60202178
:100D000080F84110002180F840100846704702200A
:100D1000704790F84120202A22D190F84020012AE3
:100D20001ED0012280F84020242280F84120026851
:100D3000136823F0010313600268136823F47063DF
:100D400043EA0121116001680A6842F001020A6069
:100D5000202180F84110002180F84010084670479B
:100D60000220704770B5040004D094F841000025BB
:100D700010B106E0012070BD84F84050204600F01C
:100D80004FF8242084F841002068016821F0010117
:100D900001606068216820F07060086120688168E7
:100DA00021F400418160E0680128A06830D040F45F
:100DB000044021688860E0680228206841682AD0E1
:100DC00021F40061416020684168144A1143416088
:100DD0002068C16821F40041C160D4E904010843DE
:100DE000A16940EA01202168C860D4E907010843ED
:100DF000216808602068016841F0010101606564B4
:100E0000202084F84100256384F84250002070BD02
:100E100040F40040CDE741F40061D3E700800002D8
:100E20002DE9F043A9B00446142122A8FFF71CFACB
:100E300088216846FFF718FA2C4920682C4C1226A6
:100E40000327DFF8B09000254FF00408884222D134
:100E5000402014950090684600F0BCF908B1FFF7F7
:100E600068FAE06C40F00200E064E06C24AA00F054
:100E700002002790C020CDE9220682E8A00122A925
:100E80004846FFF701FEA06D40F40010A065A06D7C
:100E900000F4001025E01849884223D180200090FA
:100EA0001595684600F096F908B1FFF742FAE06C34
:100EB00040F00200E064E06C24AA00F002002790F9
:100EC0004FF4C040CDE9220682E8A00122A948469D
:100ED000FFF7DAFDA06D40F48000A065A06D00F47E
:100EE0008000279029B0BDE8F08300000054004046
:100EF0000010024000040048005800400248816889
:100F000002781144816070470000002010B5002471
:100F1000032000F071F80F2000F008F808B1012458
:100F200001E000F025F8204610BD000070B50E4E1F
:100F300005460024307898B14FF47A71B1FBF0F097
:100F40000A490968B1FBF0F000F0C0FE40B9102D6D
:100F500006D200222946501E00F02EF8756000E0EF
:100F60000124204670BD0000000000200C0000207D
:100F7000094808B5016E41F001010166016E01F0FA
:100F800001010091816D41F080518165806D00F01B
:100F90008050009008BD000000100240002809DBCE
:100FA00000F01F02012191404009800000F1E02083
:100FB000C0F8001170470000F0B40E4B1B680C46DF
:100FC000C3F30223C3F10705042D00D90425191D1D
:100FD000072901D2002300E0DB1E012606FA05F1F5
:100FE000491E214099409E40761E16403143F0BC78
:100FF00001F063BD0CED00E0064900F0070208684F
:101000004FF6FF03184040EA0220034A10430860ED
:10101000704700000CED00E00000FA051649B0F53D
:10102000007F0868C0F3412009D0022805D0086875
:1010300020F4C06040F48060086000207047012800
:10104000FBD0086820F4C06040F4007008600B48D2
:101050003222006850430A4AB0FBF2F0401C00E024
:10106000401E4A69520501D50028F9D1486940055A
:10107000E3D5032070470000007000400C00002002
:1010800040420F000248006800F4C0607047000052
:10109000007000400248016841F4807101607047AF
:1010A00000700040F8B50446FFF702FE064624B182
:1010B00094F83900002510B109E00120F8BD84F84A
:1010C0003850204600F03EF841F288302064206815
:1010D0000168A2686FF0FF0321F4706103EB022244
:1010E00011430160206C00903346002220212046ED
:1010F00001F0EFF9F0B921680A68104B1A40237922
:1011000042EA0362E3681A430A60D4E90512114314
:10111000226853680A4E3340268A43EA064319433D
:10112000516021680A6842F001020A60E56301210A
:1011300084F8391084F83850F8BD0000EFFFFF0044
:10114000FEF8E0FFF0B587B0044614216846FFF7CB
:101150008BF81949206888422CD11848016D41F458
:1011600080710165016D01F480710591C16C41F0E0
:101170000101C164C16C01F001010591C16C41F034
:101180000201C164C06C022400F002000590C0207E
:10119000002503260A278DE8F10069464FF09040AC
:1011A000FFF772FC40F603408DE8F1006946044801
:1011B000FFF76AFC07B0F0BD001000A0001002406D
:1011C000000400480248016841F0040101607047D2
:1011D000001002402DE9F84F044600270088E54D35
:1011E0003E46010504F1200B1DD5606E78B1B0F5C7
:1011F000800F11D0B0F5000F04D0B0F5400F22D011
:1012000001270FE0E86840F48030E8601BE000212F
:10121000201D01F083F903E00021584601F014FA83
:10122000070010D03E462088C00426D5A06EC0B16D
:10123000B0F1807F1AD0B0F1007F0DD0B0F1407FC7
:1012400019D0012718E0D5F88800616E20F440001D
:101250000843C5F88800E6E7E86840F48030E860B5
:1012600009E00021201D01F059F903E00021584652
:1012700001F0EAF90746F7B13E46206880033AD507
:10128000A86D4FF00008C00009D4A86D40F0805050
:10129000A865A86D4FF0010800F080500090DFF8BD
:1012A000D8A2DAF8001041F48071CAF80010FFF7F4
:1012B000FFFC814610E0D5F88800A16E20F0407058
:1012C0000843C5F88800D8E7FFF7F2FCA0EB090057
:1012D000022801D9032705E0DAF80000C005F3D59C
:1012E000002F7CD04FEA0706B8F1000F03D0A86D9D
:1012F00020F08050A8652078C00707D0D5F8880076
:10130000A16B20F003000843C5F88800207880070F
:1013100007D5D5F88800E16B20F00C000843C5F82C
:1013200088002078400707D5D5F88800216C20F088
:1013300030000843C5F888002078000707D5D5F8A5
:101340008800616C20F0C0000843C5F88800207850
:10135000C00607D5D5F88800A16C20F4407008437A
:10136000C5F888002078800607D5D5F88800E16C9C
:1013700020F440600843C5F888002088800507D520
:10138000D5F88800E16D20F440200843C5F88800B6
:101390002088400507D5D5F88800216E20F440103C
:1013A0000843C5F888002078400607D5D5F888009E
:1013B000216D20F440500843C5F8880020780006CD
:1013C00007D5D5F88800616D20F440400843C5F882
:1013D00088002088C00509D5D5F8880000E01CE009
:1013E000A16D20F440300843C5F8880020884FF0F4
:1013F000006780044FF080684FD5D5F88800E16E13
:1014000020F040600843C5F88800E06EB8423CD147
:10141000E86840F48010E8603FE0D5F8900010F4F0
:10142000407015D0D4F88410814211D0D5F89000C6
:10143000D5F8901020F4407041F48031C5F8901038
:10144000D5F8901021F48031C5F89010C5F89000BF
:10145000C00710D0FFF72CFC074641F2883906E0A0
:10146000FFF726FCC11B494501D903263CE7D5F807
:1014700090008007F4D5D5F89000D4F8841020F4BB
:1014800040700843C5F890002EE7404505D1012182
:10149000201D01F043F800B106462068000317D56F
:1014A000D5F88800216F20F040600843C5F8880017
:1014B000206FB84204D1E86840F48010E86007E08B
:1014C000404505D10121201D01F028F800B1064654
:1014D0002068400317D5D5F88800616F20F0406080
:1014E0000843C5F88800606FB84204D1E86840F44A
:1014F0008010E86007E0404505D10121201D01F082
:101500000DF800B10646208840041AD5D5F88800A9
:10151000A16F20F040500843C5F88800A06FB0F1DB
:10152000805F03D0B0F1005F05D00AE00221201DEA
:1015300000F0F4FF03E00221584601F085F800B105
:1015400006462088000407D5D5F88800E16F20F012
:1015500080400843C5F888002068C00307D555F8C7
:10156000880FD4F8801020F00040084328603046EF
:1015700000F004B8001002400070004018BCBDE844
:10158000E08F00002DE9F0470F4605006BD0494E73
:10159000306800F00700B84209D2306820F0070038
:1015A00038433060306800F00700B8425BD12878DB
:1015B000414C80070AD5A868A16801F0F001884273
:1015C00004D9A16821F0F0010143A1602878C00787
:1015D0002CD06868032811D0022812D0216898B155
:1015E000490500293FDAA16821F003010143A16008
:1015F000FFF75EFB804641F2883910E021688901DF
:10160000EFE721688903ECE78907EAE7FFF750FB7A
:10161000A0EB0801494502D90320BDE8F087A06886
:10162000696800F00C00B0EB810FEFD128788007DB
:101630000AD5A868A16801F0F001884204D2A16827
:1016400021F0F0010143A160306800F00700B842CA
:101650000BD9306820F0070038433060306800F064
:101660000700B84201D00120D7E72878400705D508
:10167000A068E96820F4E0600843A06028780007CB
:1016800006D5A068296920F4605040EAC100A06036
:1016900000F03EF8A168094AC1F30311515C01F062
:1016A0001F01C8400649086006480068BDE8F047C9
:1016B000FFF73CBC0020024000100240182B00083D
:1016C0000C000020040000200548064900688968D5
:1016D000054AC1F30221515C01F01F01C840704767
:1016E0000C00002000100240582B00080548064955
:1016F00000688968054AC1F3C221515C01F01F01ED
:10170000C84070470C00002000100240582B000811
:1017100070B52549002318468A68CC6812F00C027F
:1017200004F00306214C4FEA640509D00C2A05D0C9
:10173000042A32D0082A00D1284670BD012E10D1CB
:101740000B681B0704D4D1F89430C3F3032302E0E1
:101750000B68C3F30313164E56F82330DAB10C2A84
:10176000EBD1C86800F00300022818D0032818D075
:101770001846CA68CB68C2F30212C3F30623434378
:10178000521CB3FBF2F2C868C0F34160401C400039
:10179000B2FBF0F070BD184670BD204670BD20460B
:1017A000E7E72846E5E70000001002400024F400C7
:1017B000282B00082DE9F84304006FD0FD4DA868E0
:1017C00000F00C06E86800F003072078C00664D536
:1017D00076B10C2E01D1012F0AD0A069002828680B
:1017E0007AD040F001002860FFF762FA80465DE0A1
:1017F0002868800702D5A0690028DED0216A286801
:10180000000703D5286800F0F00004E0D5F8940044
:10181000F02202EA1010814216D9084600F098FF23
:1018200000283BD1286840F0080028602868216A19
:1018300020F0F000084328606868E16920F47F40E8
:1018400040EA0120686016E0286840F0080028603F
:101850002868216A20F0F000084328606868E16980
:1018600020F47F4040EA0120686026B9206A00F039
:101870006FFF0028D5D1FFF74BFFA968CE4AC1F30F
:101880000311515C01F01F01C840CC490860CC48ED
:101890000068FFF74BFB00287ED12EE0CAE000BFB6
:1018A000FFF706FAA0EB0800022876D82868800720
:1018B000F6D5286840F0080028602868216A20F0E2
:1018C000F000084328606868E16920F47F4040EA3E
:1018D0000120686011E0FFE720F001002860FFF7B9
:1018E000E7F9804606E000BFFFF7E2F9A0EB080049
:1018F0000228DAD828688007F6D42078C00740D0BC
:10190000082E18D00C2E01D1032F14D06068B0F52A
:10191000803F17D0B0F5A02F286817D020F4803072
:101920002860286820F4802028606068E0B1FFF714
:10193000BFF9804614E02868800322D5606800283B
:1019400078D01EE0286840F48030EDE740F4802035
:101950002860F7E7FFF7ACF9A0EB08006428A4D8EB
:1019600028688003F6D50CE0FFF7A2F9804605E071
:10197000FFF79EF9A0EB0800642896D8286880033A
:10198000F6D4207880073BD5042E11D00C2E01D13F
:10199000022F0DD0E06801E086E1D6E0002828683B
:1019A0001ED040F480702860FFF782F907460CE0F3
:1019B000286840050CD5E0680028C1D008E000BFC9
:1019C000FFF776F9C01B022893D828684005F7D5A1
:1019D0006868217C20F0F85040EA016068600FE000
:1019E00020F480702860FFF763F9074605E000BF28
:1019F000FFF75EF9C01B0228B1D828684005F7D46C
:101A00002078000729D560690028D5F8940012D005
:101A100040F00100C5F89400FFF74AF9074604E0DA
:101A2000FFF746F9C01B022899D8D5F89400800723
:101A3000F6D512E000E120F00100C5F89400FFF7B0
:101A400037F9074605E000BFFFF732F9C01B02284F
:101A50007BD8D5F894008007F6D42078400766D567
:101A6000A86D0027C00008D4A86D40F08050A8657C
:101A7000A86D012700F08050009052480168C90508
:101A800012D40168814641F480710160FFF710F9BA
:101A9000804605E0FFF70CF9A0EB0800022854D8B7
:101AA000D9F80000C005F5D5A068012816D0052892
:101AB000D5F8900017D020F00100C5F89000D5F8B7
:101AC000900020F0040000BFC5F89000A06841F22B
:101AD0008839C0B1FFF7ECF880460FE0D5F89000E8
:101AE00040F00100F0E740F00400C5F89000F5E791
:101AF000FFF7DEF8A0EB0801494526D8D5F890009D
:101B00008007F5D50EE0FFF7D3F8804606E000BF6A
:101B1000FFF7CEF8A0EB0801494516D8D5F890009C
:101B20008007F5D41FB1A86D20F08050A865A06A89
:101B3000F0B302280AD00C2E7ED0286820F08070E6
:101B40002860FFF7B5F80446B0E0ACE0E868E26A68
:101B500000F00301914229D1216B00F070020901CC
:101B60001039914222D1626B00F4FE41B1EB022F99
:101B70001CD1A26B00F40031072A01D0012200E041
:101B80000022914212D1A18F00F4C00249084905F8
:101B9000A1F50011914209D194F8401000F0C06005
:101BA00049084906A1F1007181425ED00C2E0BE07C
:101BB00072E0000000100240182B00080C0000200A
:101BC000040000200070004079D02868400176D4DD
:101BD0002868C00073D4286820F080702860FFF760
:101BE00067F8064605E000BFFFF762F8801B022891
:101BF00059D828688001F7D4D4E90B016FF00F029F
:101C000002EB01110843A18F5204490802EB415134
:101C1000626B41EA0221084394F840104FF07E4283
:101C2000490802EB41610843A16B090940EA4140C0
:101C3000E968244A114000E041E00843E860286870
:101C400040F080702860E86840F08070E860FFF73E
:101C50002FF8044605E000BFFFF72AF8001B022812
:101C600021D828688001F7D527E02868800124D48E
:101C7000286840F080702860E86840F08070E86074
:101C8000FFF716F8044604E0FFF712F8001B0228DD
:101C900009D828688001F7D50FE000BFFFF708F8E2
:101CA000001B022802D90320BDE8F88328688001C0
:101CB000F4D4E86804490840E8600020F4E7012013
:101CC000F2E700008C809DF9FCFFEEFE10B5401E8F
:101CD000B0F1807F01D3012010BD4FF0E02460619E
:101CE0000F21601700F0E9FE0020A06107202061AD
:101CF000002010BD7047704770470000F0B590F8A5
:101D00003C20012A39D0012480F83C40022280F88E
:101D10003D20026853689568194E1A4FB24201D0AF
:101D2000BA4204D123F4700C4B6843EA0C0323F04D
:101D3000700C0B6843EA0C0353600268B24210D087
:101D4000B2F1804F0DD0104B9A420AD00F4B9A42FD
:101D500007D00F4B9A4204D0BA4202D00D4B9A42A0
:101D600004D1896825F080031943916080F83D40D3
:101D7000002180F83C100846F0BD0220F0BD0000B4
:101D8000002C0140003401400004004000080040E5
:101D9000000C00400040014010B5040003D094F84E
:101DA0003D0010B107E0012010BD002084F83C0088
:101DB000204600F023F8022084F83D00211D206811
:101DC00000F06EFD012084F8480084F83E0084F89D
:101DD0003F0084F8400084F8410084F8420084F811
:101DE000430084F8440084F8450084F8460084F8F1
:101DF000470084F83D00002010BD000008B5274AC8
:101E00000168274891420ED1816D41F01001816532
:101E1000806D002200F01000009011463620FFF780
:101E2000CBF8362034E01F4A91420ED1816D41F04B
:101E300020018165806D002200F020000090114695
:101E40003720FFF7B9F8372022E0174A91420ED128
:101E5000016E41F400310166006E002200F4003092
:101E6000009011461920FFF7A7F8192010E00F4A3B
:101E7000914211D1016E41F480210166006E002271
:101E800000F48020009011461A20FFF795F81A20E0
:101E9000BDE80840FFF782B808BD00000010004010
:101EA000001002400014004000440140004801407E
:101EB00070472DE9F04104460068C66805694FF097
:101EC0000007A90713D5B10711D5F91E016101203B
:101ED0002077206880698007204602D0FFF7E8FF5E
:101EE00004E000F089F8204600F087F827776807BB
:101EF00016D5700714D521686FF004000861022020
:101F000020772068806910F4407F204602D0FFF7D8
:101F1000CFFF04E000F070F8204600F06EF827775D
:101F2000280715D5300713D521686FF00800086120
:101F3000042020772068C0698007204602D0FFF780
:101F4000B7FF04E000F058F8204600F056F8277775
:101F5000E80616D5F00614D521686FF01000086168
:101F6000082020772068C06910F4407F204602D006
:101F7000FFF79EFF04E000F03FF8204600F03DF838
:101F80002777E80708D0F00706D021686FF0010036
:101F90000861204600F032F8280608D5300606D53C
:101FA00021686FF0800008612046FFF7A4FEE80575
:101FB00008D5300606D521686FF480700861204688
:101FC000FFF798FE680608D5700606D521686FF001
:101FD00040000861204600F012F8A8060AD5B006B5
:101FE00008D521686FF0200008612046BDE8F04167
:101FF000FFF782BEBDE8F0817047704770477047B9
:102000002DE9F843040004D094F84900002518B1E4
:1020100007E00120BDE8F88384F84850204600F02E
:1020200049F8022084F849002068016821F0010184
:102030000160204600F094FC0128EBD02068416844
:1020400021F4804141602068816821F02A0181608B
:102050002068016841F001010160E564FEF728FE97
:102060008046206800684FF0030700074FF47A7637
:102070000AD5434600224FF400112046009600F096
:10208000F5FC08B13846C5E720680068400709D567
:10209000434600224FF480012046009600F0E6FC03
:1020A0000028EFD1012084F8490084F848502846E0
:1020B000B0E7000010B5A8B00446142122A8FEF72E
:1020C000D3F888216846FEF7CFF817492068884280
:1020D00028D104200024009010946846FFF77AF875
:1020E00008B1FEF726F91148816D41F48021816520
:1020F000816D01F480212791C16C41F00401C1641C
:10210000C06C22A900F00400279041F23000229018
:102110000220CDE9230403202590072026900448BF
:10212000FEF7B2FC28B010BD00480040001002408D
:1021300000080048FEE700EB8100006E00F0F84068
:1021400070478068C0F3C00070478068C0F38000AB
:1021500070478068C0F380007047042303EAD153BE
:1021600010B518444369C1F3045107248C40A343BC
:102170008A401343436110BD00EB8100016E21F0E2
:10218000004111430166704730B589B000240694C0
:102190000794182168460894FEF766F81B481A4908
:1021A0000425C0E900148460C460C0E904450476D5
:1021B00001214176C16180F820408462C46280F8C8
:1021C0003040446380F83840FEF734FB08B1FEF736
:1021D000B0F806A90D480694FEF7AEF808B1FEF770
:1021E000A8F80B4800900620CDE901047F20059453
:1021F000CDE9030569460548FEF71CF9002801D022
:10220000FEF797F809B030BD000004501000002020
:102210004000201930B587B014216846FEF724F835
:102220001F48C16C41F00401C164C16C01F004019C
:102230000591C16C41F00101C164C16C01F0010163
:102240000591C16C41F00201C164C06C154D00F0F4
:1022500002000590002210212846FEF724FDE81315
:1022600000904FF488100024CDE901046946284607
:10227000FEF70AFC4FF40070CDE900040220029042
:1022800069460948FEF700FC01211020CDE902143F
:10229000CDE9000169462846FEF7F6FB07B030BDE0
:1022A000001002400004004800080048134810B520
:1022B000114901601249416000210122C0E9021266
:1022C000016141618161C1610162FEF74BFD08B1AD
:1022D000FEF72FF800210948FEF7F0FC08B1FEF7E1
:1022E00028F800210548FEF714FD002803D0BDE8BA
:1022F0001040FEF71EB810BD0054004074000020CE
:10230000FFEAC000134810B511490160124941604D
:1023100000210122C0E90212016141618161C161B4
:102320000162FEF71FFD08B1FEF703F8002109481E
:10233000FEF7C4FC08B1FDF7FCFF00210548FEF7DD
:10234000E8FC002803D0BDE81040FDF7F2BF10BD47
:1023500000580040C8000020FFEAC0000B4810B53C
:1023600009490160FF210122C0E901120021C0E9F1
:10237000031241618161FEF795FE002803D0BDE89C
:102380001040FDF7D6BF10BD001000A01C010020BA
:102390000C4810B50A49016000214FF6FF724160F8
:1023A000C0E902120161416180218161FFF7F4FC03
:1023B000002803D0BDE81040FDF7BBBF10BD0000F2
:1023C00000440140F80100200C4810B50A490160A2
:1023D00000214FF6FF724160C0E9021201614161C4
:1023E00080218161FFF7D8FC002803D0BDE81040B0
:1023F000FDF79FBF10BD00000048014044020020CF
:102400003EB500240F48009401940D490294C0E9A0
:1024100000144FF6FF71C0E9024180218161FFF78E
:10242000BBFC08B1FDF785FF00946946054802949E
:10243000FFF764FC002801D0FDF77BFF3EBD0000E4
:1024400000100040600100203EB500240F480094B9
:1024500001940D490294C0E900144FF6FF71C0E9E0
:10246000024180218161FFF797FC08B1FDF761FF10
:102470000094694605480294FFF740FC002801D00B
:10248000FDF757FF3EBD000000140040AC010020E6
:102490000D4810B50B4901604FF4E1314160002156
:1024A00081600C22C160C0E904128161C1610162D6
:1024B000FFF7A6FD002803D0BDE81040FDF739BFA7
:1024C00010BD00000048004090020020FEE7FEE73B
:1024D00070472DE9F041984616460F460446069D82
:1024E00008E0681C06D0FEF7E3FBA0EB0800A8425A
:1024F0000AD84DB120688068384000D00120B04231
:10250000EFD10020BDE8F081042084F83900E06BB1
:1025100040F00100E0630120F4E700002DE9F04104
:10252000444C05468846E0680026810728680DD09F
:10253000E16801F00301814216D1A8B1E068696841
:10254000C0F30210401C88420ED120E0012804D0C4
:10255000022805D0032807D108E02168890701E097
:1025600021684905002907DB01265FE0216889030E
:1025700002D421684903F5E7E1686A686FF00F0348
:1025800021F0730103EB021211430143E160206863
:1025900020F080602060FEF78BFB074605E000BF5F
:1025A000FEF786FBC01B022837D820680001F7D44D
:1025B000B8F1000F18D0B8F1010F1ED0287D4FF0F0
:1025C0007E41400801EB4060A96840EA0120216992
:1025D000194A114008432061206840F08060206063
:1025E000FEF766FB07461AE0A868E96800020909D9
:1025F00040EA41402169114AEBE7288A1049400826
:1026000001EB4050A96840EA012021690D4AE0E74A
:10261000FEF74EFBC01B022801D9032606E0206806
:102620000001F5D52069A969084320613046BDE85D
:10263000F081000000100240FF80FFF9FF80FDFFE5
:102640000000E0FFFF809FFF2DE9F0413D4C064672
:102650008846E0680025810730680DD0E16801F008
:102660000301814216D1A8B1E0687168C0F302107D
:10267000401C88420ED120E0012804D0022805D059
:10268000032807D108E02168890701E0216849058E
:10269000002907DB012551E02168890302D4216864
:1026A0004903F5E7E16872686FF00F0321F07301E9
:1026B00003EB021211430143E160206820F08050D7
:1026C0002060FEF7F5FA074605E000BFFEF7F0FAD6
:1026D000C01B022829D820688000F7D4B8F1000F69
:1026E00015D0307C4FF07E41400801EB4060B1686E
:1026F00040EA01206169144A114008436061206882
:1027000040F080502060FEF7D3FA07460FE0B06833
:10271000F1680002090940EA414061690B4AEBE7B0
:10272000FEF7C6FAC01B022801D9032506E020687F
:102730008000F5D560697169084360612846BDE88D
:10274000F081000000100240FF80FFF9FF80FDFFD4
:10275000F8B51C4D06460024A86DC00002D5FEF752
:1027600091FC0DE0A86D40F08050A865A86D00F0C8
:1027700080500090FEF786FCA96D21F08051A9657C
:10278000B0F5007F04D0802E07D94FF003040AE093
:10279000802E08D9A02E01D804E001D1022402E045
:1027A000702E00D101240848016821F0070121435F
:1027B0000160006800F00700A04201D00120F8BDD0
:1027C0000020F8BD00100240002002407047FEF7D4
:1027D00095BB000010B596B044216846FDF744FD56
:1027E000142111A8FDF740FD4FF40070FEF716FC10
:1027F00008B172B6FEE7FEF74DFC184850F8901F7E
:1028000021F01801016014200090012002900024A2
:1028100060210690CDE907410221CDE90A100C9014
:1028200019200D900720CDE90E0168461091FEF7A2
:10283000C1FF08B172B6FEE70F2011900320CDE969
:1028400012040146149411A81594FEF79BFE08B1DA
:1028500072B6FEE7FEF7B6FC16B010BD00100240DF
:102860000248016841F470010160704788ED00E0A2
:102870000148FFF71EBB0000440200200148FFF79B
:1028800018BB0000F80100200148FFF712BB000050
:10289000600100200148FFF70CBB0000AC010020E4
:1028A0002DE9F0470268264B264D274E274F284C2E
:1028B0004FF0804A984209D0504507D0A84205D031
:1028C000B04203D0B84201D0A04204D122F0700C33
:1028D0004A6842EA0C02DFF87CC0DFF87C80DFF84F
:1028E0007C9098420FD050450DD0A8420BD0B042FA
:1028F00009D0B84207D0A04205D0604503D040457A
:1029000001D0484503D122F44075CA682A434D6975
:1029100022F080022A4302608A68C2620A688262E8
:10292000984207D0A04205D0604503D0404501D071
:10293000484501D10969016301214161BDE8F08782
:10294000002C01400004004000080040000C004042
:102950000034014000400140004401400048014073
:1029600070B504468068216900250843616941F417
:102970000041084321680A68364B1A4002430A6046
:10298000206A40F40061D4E9060210430843E1687C
:1029900001432068426822F47C520A4342602E4A76
:1029A00020682E494FF6EF7690420ED1D1F888007C
:1029B00010F0030006D001283ED0022839D00328A9
:1029C00041D13CE0FEF792FE1FE0254A90420BD138
:1029D000D1F8880010F00C0015D004282CD008285D
:1029E00027D00C282FD12AE01E4A90422BD1D1F8B3
:1029F000880010F0300006D010281DD0202818D0F4
:102A0000302820D11BE0FEF75FFE4100D4F804001F
:102A100001EB5001B1FBF0F0A0F11001B14212D86E
:102A20004FF6F0710140C0F3420001432068C160DD
:102A30000AE00D496068EBE7FEF76AFEE5E74FF450
:102A400080316068E4E701250020A063E063284648
:102A500070BD0000F369FFEF003801400010024034
:102A600000440040004800400048E8012DE9F041E2
:102A7000984617460E460446069D08E0681C06D098
:102A8000FEF716F9A0EB0800A8420BD855B1206854
:102A9000C06936EA00000DD00020B842EED0002018
:102AA000BDE8F081012084F84900002084F8480046
:102AB0000320F5E70120F0E7FEE70907090E0028EB
:102AC00004DB00F1E02080F80014704700F00F00F4
:102AD00000F1E02080F8141D7047FEF717FAFFF7A9
:102AE00079FEFFF797FBFFF74FFBFFF7DFFBFFF7E1
:102AF00009FCFFF733FCFFF783FCFFF7A5FCFFF7AA
:102B000047FCFFF761FCFFF7C3FCFEE74FF04070A6
:102B1000E1EE100A70470000000000000000000015
:102B20000102030406070809A0860100400D030006
:102B3000801A060000350C0040420F0080841E0001
:102B400000093D0000127A000024F40000366E01F6
:102B50000048E801006CDC020000000001020304F0
:102B6000802B00080000002010000000C4010008B5
:102B7000902B00081000002030090000E001000840
:102B800001000000100000000000000000093D00EE
:040000050800018965
:00000001FF
