:020000040800F2
:10000000E80E002029020008F73A00084F2F0008E8
:10001000F53A00082D040008E94700080000000038
:100020000000000000000000000000005540000833
:100030002F040008000000000F3D0008AD4000083C
:10004000430200080B3D0008430200084302000879
:10005000A9040008D53F0008430200084302000835
:10006000430200084302000843020008430200085C
:10007000430200084302000843020008430200084C
:10008000430200084302000821040008430200085C
:10009000430200084302000843020008430200082C
:1000A0004D410008430200084302000843020008D3
:1000B0004302000859410008654100085D2F00080F
:1000C000512F0008752F0008692F0008430200080F
:1000D000430200084302000843020008DD4700080D
:1000E00031040008430200084302000843020008EC
:1000F00043020008430200084302000843020008CC
:10010000430200084302000871410008430200084E
:1001100043020008430200084302000843020008AB
:10012000430200084302000843020008430200089B
:10013000430200084302000843020008430200088B
:10014000430200084302000843020008430200087B
:10015000430200084302000843020008953D0008DE
:10016000430200084302000843020008430200085B
:1001700043020008430200080000000000000000E5
:10018000430200084302000800F002F800F03CF8C7
:100190000AA090E8000C82448344AAF10107DA45E2
:1001A00001D100F031F8AFF2090EBAE80F0013F0F8
:1001B000010F18BFFB1A43F001031847E046000087
:1001C00000470000103A24BF78C878C1FAD8520717
:1001D00024BF30C830C144BF04680C6070470000C1
:1001E0000023002400250026103A28BF78C1FBD840
:1001F000520728BF30C148BF0B6070471FB504F0DD
:1002000023FB1FBD10B510BD00F0CFF81146FFF75E
:10021000F5FF04F0FAFA00F0EDF803B4FFF7F2FF8F
:1002200003BC00F0F5F80000094880470948004782
:10023000FEE7FEE7FEE7FEE7FEE7FEE7FEE7FEE796
:10024000FEE7FEE704480549054A064B70470000F3
:100250003D41000889010008E8080020E80E002060
:10026000E80A0020E80A002053EA020C00F0698046
:100270002DE9F04B4FF00006002B1FBFB3FA83F5BA
:1002800003FA05F424FA05F65E4012BF1643B2FAEB
:1002900082F502FA05F4C5F120051EBF22FA05FC1D
:1002A00044EA0C04203556EA044C4FEA144418BFC3
:1002B000641C4FF000084FF00009904271EB030CF2
:1002C00039D3002919BFB1FA81F701FA07F6B0FA5C
:1002D00080F700FA07F6C7F120071EBF20FA07FCD7
:1002E00046EA0C062037B6FBF4FCA7EB0507103FE7
:1002F00007F01F0BCBF120060CFA0BFB2CFA06F6CD
:1003000044BFB3460026202FA4BF5E464FF0000B2B
:100310005BEA060C08BF4FF0010B19EB0B09ABFBB6
:10032000027C48EB0608C01B06FB02CC0BFB03CC8F
:1003300071EB0C01C1E70B46024641464846BDE859
:10034000F08B13B54FF000004FF00001AFF30080C9
:10035000BDE81C4070474FF0000200B513469446BC
:100360009646203922BFA0E80C50A0E80C50B1F10D
:100370002001BFF4F7AF090728BFA0E80C5048BF21
:100380000CC05DF804EB890028BF40F8042B08BFBF
:10039000704748BF20F8022B11F0804F18BF00F8BB
:1003A000012B7047704770477047754600F02CF876
:1003B000AE4605006946534620F00700854618B052
:1003C00020B5FFF73FFFBDE820404FF000064FF09B
:1003D00000074FF000084FF0000B21F00701AC467A
:1003E000ACE8C009ACE8C009ACE8C009ACE8C00999
:1003F0008D46704710B50446AFF300802046BDE837
:100400001040FFF70ABF000000487047880800202E
:1004100001491820ABBEFEE726000200704700002D
:10042000014800F0E3BA000034000020FEE7704706
:1004300010B54FF4805000F017FEBDE810404FF4A7
:10044000004000F011BE72B6FEE70000144A117FB2
:100450001448012901D003290FD1036823F4007344
:100460000360036843F400630360036823F40063DC
:100470000360036843F400730360022901D0032979
:100480000BD1016841F480510160016821F4805171
:100490000160016841F480610160002010777047BD
:1004A000100000200020024000F064BDCA070B4984
:1004B0004A6902D022F4006201E042F400624A611B
:1004C0004A6960F3CA024A61486940F00200486123
:1004D000486940F4803048617047000000200240C5
:1004E0007047704770477047704700002DE9F0472C
:1004F000044690F850009AB00E464FF000090128CB
:1005000016D0012084F85000002515951695324F1D
:100510002068B84210D1DFF8C480CDF80080404692
:1005200003F08AF88246206803F086F860B10EE096
:1005300002201AB0BDE8F087606D40F020006065D1
:1005400084F850500120F4E7BAF1000F0AD0606D32
:1005500040F0200060654FF0010900BF84F8505062
:100560004846E6E71E4831681E4A0029816840F681
:100570001F7321F460411CD094F830C041EA4C3123
:10058000D6F804C041EA0C018160B968D8F8087057
:1005900001F0010107F001079268394302F00102FE
:1005A0001143DBD1B2683168114382689A43114329
:1005B0000FE08160B968D8F8086001F0010106F029
:1005C00001069268314302F001021143C6D18168ED
:1005D00099438160C2E7000000000450000104500C
:1005E00000030450000204502DE9F84F0027044690
:1005F000009790F85000DFF8B8930D46B8460128F0
:1006000011D0012684F85060206803F011F860B121
:10061000606D40F0200060655FF0010784F8508055
:10062000384600F0DDB90220FBE76868052808D8E5
:10063000022825D0032825D0042825D0052825D038
:10064000062021680C2303EA901319442A680B6BD7
:1006500000F01F004FF01F0C0CFA00FCC2F3846284
:1006600023EA0C03824013430B63206802F0E0FF8F
:100670008246206802F0D8FF5AEA000009D09AE0CA
:100680000C20DEE71220DCE71820DAE74FF4807058
:10069000D7E7AA682968206802F0DAFF206869694C
:1006A000C268C2F3C102520091402A69042A0FD0E5
:1006B00000EB82002B68026EDFF8F8C203F0F8430B
:1006C00002EA0C020B431A4342F00041016672E059
:1006D000002102F0A3FF400320684FF0000172D018
:1006E00002F09CFF90FAA0F0B0FA80F12868420373
:1006F0006ED090FAA0F0B0FA80F0814204D10022CE
:100700001146206802F0B3FF0121206802F086FF45
:10071000400320684FF001015DD002F07FFF90FAA6
:10072000A0F0B0FA80F12868420359D090FAA0F006
:10073000B0FA80F0814204D100220121206802F049
:1007400096FF0221206802F069FF400320684FF005
:10075000020148D002F062FF90FAA0F0B0FA80F1F6
:100760002868420344D090FAA0F0B0FA80F08142A9
:1007700004D100220221206802F079FF03212068C1
:1007800002F04CFF400320684FF0030133D002F029
:1007900045FF90FAA0F0B0FA80F1286842032FD00C
:1007A00090FAA0F0B0FA80F0814204D10022032137
:1007B000206802F05CFF2068816811F0010F22D0F0
:1007C000ABE000E004E002F029FFC0F384618DE7B4
:1007D000C0F3846091E702F021FFC0F38461A2E7D7
:1007E000C0F38460A6E702F019FFC0F38461B7E7A5
:1007F000C0F38460BBE702F011FFC0F38461CCE773
:10080000C0F38460D0E72A7B296850F8B03FC1F379
:10081000120C23EA0C0302F0180C674A22FA0CF2BD
:100820000A4013430360E968494576D128684103CB
:100830001BD090FAA0F1B1FA81F1491C01F01F011F
:1008400009294FEA403131D8002911D090FAA0F19E
:10085000B1FA81F101F1010101F01F0106FA01F67F
:1008600009D100BFC0F3846109E0C0F38461E4E70B
:10087000C0F38461EEE790FAA0F1B1FA81F101F1E1
:10088000010101F01F0146EA816102D1C0F38460D9
:1008900003E090FAA0F0B0FA80F000F1010000F05F
:1008A0001F0000EB400041EA005132E000290ED069
:1008B00090FAA0F1B1FA81F101F1010101F01F01FB
:1008C00006FA01F606D100BFC0F3846106E0C0F36A
:1008D0008461F1E790FAA0F1B1FA81F101F101012F
:1008E00001F01F0146EA816102D1C0F3846003E098
:1008F00090FAA0F0B0FA80F000F1010000F01F00C3
:100900002E4A00EB400002EB005041EA000141F0AA
:100910000071AA68206802F09BFE29482A680242FA
:100920003FF47CAE27488168274E284B284D01F0C4
:10093000E071B2421DD10E021BD422689A4202D04D
:10094000AA427FF46BAE826841F4000122F0E072AB
:100950000A4382601F4820490068B0FBF1F0401C48
:1009600000EB4000800000E0401E00900028FBD11A
:1009700054E61A4EB24209D1CE0107D422689A42F7
:1009800001D0AA42F4D141F080710AE06FF0004535
:10099000EA42EDD14A02EBD422689A42E8D141F40E
:1009A0008001826822F0E0720A43826036E600002D
:1009B00000007F4000F0FF03FFFF0700000020FE63
:1009C0000000088000030450000052C700000450DB
:1009D0000002045030000020400D0300000084CBD2
:1009E00018BCBDE8E08F7047704700002DE9F05F4C
:1009F0000446006806684568DFF854B2DBF8080072
:100A000000F01F07B0070ED5A8070CD5606DC00613
:100A100003D4606D40F4006060652046FFF760FD20
:100A2000216802200860DFF82CA2DFF82C82700712
:100A300001D5680703D4300737D5280735D5606D51
:100A4000C00603D4606D40F400706065206802F059
:100A5000F7FD20B32068504501D1424600E0024630
:100A6000824208D03FB1052F05D0092F03D0504551
:100A700003D1414602E0C16801E00146C96889042A
:100A80000DD4016809070AD502F0D2FD58B3606D94
:100A900040F010006065A06D40F00100A0652046A8
:100AA000FFF7A1FF21680C200860B00601D5A80659
:100AB00003D4700658D5680656D5606DC00603D4B9
:100AC000606D40F4005060652068C16C11F0C00F8B
:100AD0001AD00021894602F0B3FD02462068504535
:100AE00014D1434613E02068416821F00C014160B5
:100AF000606D20F480706065606DC004CFD4606D5F
:100B000040F001006065CAE70121E3E70346834244
:100B100008D03FB1062F05D0072F03D0504503D191
:100B2000414602E0C16801E00146C968B9F1000F21
:100B300014D08B0102D58AB18A040FD40268520600
:100B40000CD589020AD402F06FFDE8B3606D40F065
:100B500010006065A06D40F00100A0652046FFF721
:100B6000C0FC21686020086030060BD5280609D536
:100B7000606D40F480306065204600F059F92168CE
:100B800080200860F0050CD5E8050AD5606D40F4BA
:100B9000003060652046FFF7A6FC21684FF48070A6
:100BA0000860B0050CD5A8050AD5606D40F480201A
:100BB00060652046FFF798FC21684FF400700860DC
:100BC000F0062ED5E80600E008E02AD5606BD0B12B
:100BD000AFB1DBF8080000F4604013E02068416822
:100BE00021F060014160606D20F480506065606DAF
:100BF000C005B3D4606D40F001006065AEE72068C9
:100C0000C068C00750B1606D40F480606065A06D41
:100C100040F00200A0652046FFF7E6FE21681020A4
:100C20000860700512D5680510D5606D40F48040ED
:100C30006065A06D40F00800A06521684FF48060F9
:100C40000860204600F00AB8FFF74CBC00F00BB873
:100C500000030450000104500000045030BCBDE803
:100C6000C05FFFF7F1BF30BCBDE8C09FF8B54FF0E3
:100C7000000504002E46009502D0606D10B107E01B
:100C80000120F8BD204600F0D5F8A66584F8506034
:100C900020688168C1F3407119B181685A4A1140D6
:100CA000816020688168C1F3007189B98168574A01
:100CB000114041F080518160554856490068B0FBB1
:100CC000F1F04000801C00E0401E00900028FBD1A5
:100CD00020688168C1F3007141B9616D41F0100174
:100CE0006165A16D41F00101A165012502F0A0FC43
:100CF000616DC90600D430B1606D40F010006065D0
:100D000001252846F8BD606D20F4807040F0020097
:100D100060652068806810F0010F15D13E4880683A
:100D20003E4900F00100896801F0010108433C4997
:100D3000896801F00101084306D13A4960688A6870
:100D400022F47C1202438A60E168606B627E084391
:100D5000A16841EA4231084394F8201040EA01407A
:100D6000012904D1A18C304A02EB41410843A16A18
:100D700029B101F47071E26A014342EA010022687C
:100D8000D1682A4B19400143D160206802F04CFC25
:100D9000A8B9207E94F83010800340EA4101206811
:100DA000C26844F202039A430A43C26094F83800CE
:100DB00001280CD02068016921F00101016120693E
:100DC00001282068016B21F00F0111D013E0D4E954
:100DD0000F010843D4E911121143084321680A693D
:100DE00040F2FC739A43104340F001000861E6E7CB
:100DF000E269521E11430163606D20F0020040F071
:100E0000010060657DE70000C0FFFF5FC0FFFF7F5E
:100E100030000020400D0300000004500001045089
:100E200000020450000304500000FEFF07C0F0FF62
:100E30007047000010B5A8B00446142122A8FFF79F
:100E40008AFA88216846FFF786FA20492068884296
:100E500039D14FF48040009080031E900120019012
:100E600002901020039007200224CDE90404880199
:100E7000CDE90640684600F0A5FE08B1FFF7E3FAA9
:100E80001348C16C41F40051C164C16C01F40051BC
:100E90002791C16C41F00101C164C06C22A900F02E
:100EA000010027900B20CDE92240002024904FF034
:100EB000904000F0E5F800221146122000F0F8FB07
:100EC000122000F0E7FB28B010BD00000000045025
:100ED0000010024010B590F825100022022905D01C
:100EE0000421C16380F82420012010BD01680B6833
:100EF00023F00E030B6001680B6823F001030B6005
:100F000090F84410046C01F01C03012101FA03F372
:100F1000636080F8251080F82420104610BD10B5BD
:100F200090F825100024022903D00421C163012474
:100F30001AE001680A6822F00E020A6001680A6875
:100F400022F001020A6090F84410036C01F01C02C8
:100F5000012101FA02F25A6080F82510002180F880
:100F60002410816B01B18847204610BD90F8250000
:100F70007047704770B5394D68696FF30A00686152
:100F8000686920F400406861354C207A042803D158
:100F9000686920F48020686128694CF2FA310840C1
:100FA0004FF0000619D0616801436160810F01D0E4
:100FB000A969A961810000D02861FFF747FA207A6A
:100FC00001281CD002281CD003281CD004281AD0C9
:100FD0005FF0000000F046F826722869C00734D0A0
:100FE00001202861207A01280FD0FFF72FFA207AFC
:100FF000022824D0032824D0042822D024E06069C9
:10100000E8E72069E6E7E068E4E7A069401EA06140
:10101000A06950B16069FFF7ACFF6069401C606176
:1010200060692169FFF742FA0FE04FF0FF3060611D
:101030002672FFF70BFA6069FFF79BFF05E0206956
:1010400000E0E068FFF795FF2672207A002804D1BF
:10105000686920F040706861267070BD0020024011
:101060001000002070477047044910B50A6802421A
:1010700002D00860FFF7F7FF10BD00001404014024
:101080002DE9F04FDFF8EC9100220127A9F1040BC4
:1010900085B003254FF00F0C09F1040AABF1040EE3
:1010A000E0E000BF07FA02F416EA04037ED00E79EE
:1010B00006F00306012E01D0022E1FD1866800968D
:1010C000560005FA06F80496009E26EA08060096E1
:1010D000D1F80C80049E08FA06F8009E48EA06083B
:1010E000C0F80880466891F80480A643C8F3001849
:1010F00008FA02F848EA0608C0F80480D1F804802B
:101100006FEA0806B6070AD1C66AA643C8F3C00448
:1011100094403443C4620C79E443A4070AD0C46801
:101120004FEA420805FA08F6B4438E6806FA08F654
:101130002643C6600C7904F00304022C11D1D408B4
:1011400000EB84060296D6F820805407E60E0CFACF
:1011500006F428EA04080C69B440029E44EA080434
:10116000346204685600029605FA06F6B4430E7916
:1011700006F00308029E08FA06F848EA0408C0F8D8
:1011800000804C6814F4403F6BD03B4C266E46F018
:1011900001062666246E22F0030604F00104009482
:1011A000364C34440294A468960700E059E04FEAB4
:1011B00016780CFA08F6B443B0F1904F04D0304ED4
:1011C000B04203D101261BE0002619E02D4EB042AB
:1011D00001D1022614E02C4EB04201D103260FE0CB
:1011E0002A4EB04201D104260AE0294EB04201D174
:1011F000052605E0274EB04201D1062600E007266D
:1012000006FA08F62643029CA660D9F800404E462E
:10121000D1F804809C435FEAC82800D51C433460A1
:10122000DAF800405646D1F804809C435FEA8828EB
:1012300000D51C433460DBF800405E46D1F80480E2
:101240009C435FEA883800D51C433460DEF80040D8
:101250007646D1F804809C435FEAC83800D51C4329
:101260003460521C0B681E46D3407FF41BAF05B0A0
:1012700000F012B8080401400010024000000140D4
:101280000004004800080048000C00480010004816
:10129000001400480018004830BCBDE8C08F006949
:1012A000084000D0012070470AB181617047816217
:1012B000704700000148806870470000040000206B
:1012C00090F84120202A24D190F84020012A20D0F3
:1012D000012280F84020242280F84120026813680F
:1012E00023F0010313600268136823F48053136032
:1012F000026813680B43136001680A6842F0010238
:101300000A60202180F84110002180F84010084632
:1013100070470220704790F84120202A22D190F88F
:101320004020012A1ED0012280F84020242280F88B
:1013300041200268136823F00103136002681368F8
:1013400023F4706343EA0121116001680A6842F0E6
:1013500001020A60202180F84110002180F840102D
:1013600008467047022070477047704730B40368E2
:101370009A691968D243D40509D4CC43240606D40B
:10138000446C44F0010444644FF48074DC61530500
:101390000AD4CB431B0607D4436C43F008034364D1
:1013A00004684FF48063E36192050AD4C9430906D7
:1013B00007D4416C41F00201416402684FF40071AE
:1013C000D161416C11F00B0F02D030BC01F068BE4E
:1013D00030BC7047026891691268436B002B00D0E3
:1013E000184770477047000070B5040004D094F8A7
:1013F0004100002510B106E0012070BD84F8405086
:10140000204600F051F8242084F84100206801684B
:1014100021F0010101606068216820F070600861BE
:101420002068816821F400418160E0680128A0689B
:1014300030D040F4044021688860E06802282068C9
:1014400041682AD021F40061416020684168144A53
:10145000114341602068C16821F40041C160D4E9B2
:1014600004010843A16940EA01202168C860D4E969
:1014700007010843216808602068016841F0010104
:1014800001606564202084F84100256384F842509F
:10149000002070BD40F40040CDE741F40061D3E787
:1014A00000800002704700002DE9F043A9B0044617
:1014B000142122A8FEF74FFF88216846FEF74BFF54
:1014C0003B4920683B4C12260327DFF8EC900025AF
:1014D0004FF00408884231D14020149500906846AE
:1014E00000F070FB08B1FEF7AEFFE06C40F00200C8
:1014F000E064E06C24AA00F002002790C020CDE94F
:10150000220682E8A00122A94846FFF7B9FDA06D96
:1015100040F40010A065A06D002200F40010279098
:1015200011461F2000F0C4F81F2000F0B3F800227D
:101530001146202000F0BCF8202034E01F498842EA
:1015400033D1802000901595684600F03BFB08B130
:10155000FEF779FFE06C40F00200E064E06C24AA42
:1015600000F0020027904FF4C040CDE9220682E847
:10157000A00122A94846FFF783FDA06D40F480003A
:10158000A065A06D002200F4800027901146212064
:1015900000F08EF8212000F07DF800221146222074
:1015A00000F086F8222000F075F829B0BDE8F0833D
:1015B0000054004000100240000400480058004061
:1015C0007047704702488168027811448160704713
:1015D0000400002010B50024032000F089F80F203B
:1015E00000F008F808B1012401E000F025F82046D9
:1015F00010BD000070B50E4E05460024307898B13D
:101600004FF47A71B1FBF0F00A490968B1FBF0F0D0
:1016100001F054F840B9102D06D200222946501E80
:1016200000F046F8756000E00124204670BD00001F
:101630000400002030000020154808B5016E41F07C
:1016400001010166016E01F001010091816D41F01F
:1016500080518165806D002200F08050009011461D
:10166000012000F025F8012000F014F800221146B6
:10167000042000F01DF8042000F00CF800221146B0
:10168000052000F015F8BDE80840052000F002B87C
:1016900000100240002809DB00F01F0201219140E8
:1016A0004009800000F1E020C0F800117047000000
:1016B000F0B40E4B1B680C46C3F30223C3F10705BD
:1016C000042D00D90425191D072901D2002300E0AB
:1016D000DB1E012606FA05F1491E214099409E4075
:1016E000761E16403143F0BC03F07FB80CED00E0ED
:1016F000064900F0070208684FF6FF03184040EA69
:101700000220034A10430860704700000CED00E01F
:101710000000FA051649B0F5007F0868C0F34120C3
:1017200009D0022805D0086820F4C06040F4806029
:101730000860002070470128FBD0086820F4C060D2
:1017400040F4007008600B483222006850430A4A97
:10175000B0FBF2F0401C00E0401E4A69520501D582
:101760000028F9D148694005E3D5032070470000FF
:10177000007000403000002040420F000248006826
:1017800000F4C060704700000070004010B5144CB9
:101790002068C00304D500F031F84FF48030206099
:1017A0000F4C20342068000703D500F01BF80820F8
:1017B00020602068C00603D500F015F810202060D6
:1017C0002068800603D500F00FF8202020602068F4
:1017D000400603D500F009F84020206010BD00004D
:1017E0001404014070477047704770470248016811
:1017F00041F480710160704700700040704770478D
:1018000070B5044690F839000026800733D50020D3
:1018100084F83800082084F839002068016821F431
:10182000F8110160206801684FF00105490710D5E3
:10183000016821F004010160616B10488863606BEE
:10184000FFF76DFBB8B184F839502046FFF7D7FF9A
:1018500011E0816889060CD50221C1602068016809
:1018600041F4003101602068016841F0020101602B
:1018700001E084F83950304670BD0000113D000889
:10188000704770477047000070B504460068816873
:1018900002684B0734D5530332D594F83910203001
:1018A00012290FD094F8391022291BD01EE0616A4A
:1018B00001B3E16909780170E169491CE161616A7C
:1018C000491E6162216889684907F0D40EE0216BE6
:1018D00081B10178A26A1170A16A491CA162216BD1
:1018E000491E2163216889684907F0D42046FFF723
:1018F000C9FF70BD2068016821F480210160F5E70F
:101900008B074FF0010574D5930372D50221C16096
:101910002068016821F4E021016094F83900122860
:1019200015D094F83900222828D094F839000228DC
:1019300050D094F839000828DBD12068416921F0A3
:101940004061416184F83950E06BE0B34DE02068BC
:101950000168490709D5016821F004010160606B45
:101960000068016821F0010101602046FFF748FF8F
:1019700084F83950204600F01CF970BD20680168D9
:1019800049070AD5016821F004010160606B006815
:10199000016821F00101016011E020300AE0216BB3
:1019A00069B10178A26A1170A16A491CA162216B18
:1019B000491E21632168896811F4F85FEFD1204640
:1019C000FFF71EFF00E00BE084F83950204600F0DE
:1019D000EDF870BD84F839502046FFF751FF70BD17
:1019E0002046FFF70CFF70BD03E02046FFF749FFDC
:1019F000F9E70B0711D513030FD50821C160206843
:101A00000168490205D5016821F41021016084F8BC
:101A10003950204600F0CBF8E5E7CB0722D0D303BE
:101A200020D5C5602068016821F470210160E06B59
:101A300040F00200E0632068016849070FD50168A3
:101A400021F004010160616B0B488863606BFFF754
:101A500066FA0028C7D0E06B40F00400E06384F829
:101A60003950C2E7C906BED5D102BCD51021C1602C
:101A7000204600F09DF8B6E7113D0008F8B5044691
:101A8000FFF718FC064624B194F83900002510B180
:101A900009E00120F8BD84F83850204600F03EF8F7
:101AA00041F28830206420680168A2686FF0FF036B
:101AB00021F4706103EB022211430160206C00905D
:101AC000334600222021204602F03FF9F0B9216878
:101AD0000A68104B1A40237942EA0362E3681A430A
:101AE0000A60D4E905121143226853680A4E334054
:101AF000268A43EA06431943516021680A6842F086
:101B000001020A60E563012184F8391084F8385035
:101B1000F8BD0000EFFFFF00FEF8E0FFF0B587B072
:101B2000044614216846FEF716FC1D4920688842C9
:101B300034D11C48016D41F480710165016D01F4DF
:101B400080710591C16C41F00101C164C16C01F06B
:101B500001010591C16C41F00201C164C06C022415
:101B600000F002000590C020002503260A278DE81A
:101B7000F10069464FF09040FFF782FA40F60340CB
:101B80008DE8F10069460848FFF77AFA002211460D
:101B90004720FFF78DFD4720FFF77CFD07B0F0BD24
:101BA000001000A000100240000400487047704779
:101BB000704770470248016841F0040101607047B6
:101BC000001002402DE9F84F044600270088E54D3B
:101BD0003E46010504F1200B1DD5606E78B1B0F5CD
:101BE000800F11D0B0F5000F04D0B0F5400F22D017
:101BF00001270FE0E86840F48030E8601BE0002136
:101C0000201D02F0CDF803E00021584602F05EF9F5
:101C1000070010D03E462088C00426D5A06EC0B173
:101C2000B0F1807F1AD0B0F1007F0DD0B0F1407FCD
:101C300019D0012718E0D5F88800616E20F4400023
:101C40000843C5F88800E6E7E86840F48030E860BB
:101C500009E00021201D02F0A3F803E0002158460E
:101C600002F034F90746F7B13E46206880033AD5C2
:101C7000A86D4FF00008C00009D4A86D40F0805056
:101C8000A865A86D4FF0010800F080500090DFF8C3
:101C9000D8A2DAF8001041F48071CAF80010FFF7FA
:101CA00009FB814610E0D5F88800A16E20F0407055
:101CB0000843C5F88800D8E7FFF7FCFAA0EB090055
:101CC000022801D9032705E0DAF80000C005F3D5A2
:101CD000002F7CD04FEA0706B8F1000F03D0A86DA3
:101CE00020F08050A8652078C00707D0D5F888007C
:101CF000A16B20F003000843C5F888002078800716
:101D000007D5D5F88800E16B20F00C000843C5F832
:101D100088002078400707D5D5F88800216C20F08E
:101D200030000843C5F888002078000707D5D5F8AB
:101D30008800616C20F0C0000843C5F88800207856
:101D4000C00607D5D5F88800A16C20F44070084380
:101D5000C5F888002078800607D5D5F88800E16CA2
:101D600020F440600843C5F888002088800507D526
:101D7000D5F88800E16D20F440200843C5F88800BC
:101D80002088400507D5D5F88800216E20F4401042
:101D90000843C5F888002078400607D5D5F88800A4
:101DA000216D20F440500843C5F8880020780006D3
:101DB00007D5D5F88800616D20F440400843C5F888
:101DC00088002088C00509D5D5F8880000E01CE00F
:101DD000A16D20F440300843C5F8880020884FF0FA
:101DE000006780044FF080684FD5D5F88800E16E19
:101DF00020F040600843C5F88800E06EB8423CD14E
:101E0000E86840F48010E8603FE0D5F8900010F4F6
:101E1000407015D0D4F88410814211D0D5F89000CC
:101E2000D5F8901020F4407041F48031C5F890103E
:101E3000D5F8901021F48031C5F89010C5F89000C5
:101E4000C00710D0FFF736FA074641F2883906E09E
:101E5000FFF730FAC11B494501D903263CE7D5F805
:101E600090008007F4D5D5F89000D4F8841020F4C1
:101E700040700843C5F890002EE7404505D1012188
:101E8000201D01F08DFF00B106462068000317D524
:101E9000D5F88800216F20F040600843C5F888001D
:101EA000206FB84204D1E86840F48010E86007E091
:101EB000404505D10121201D01F072FF00B1064609
:101EC0002068400317D5D5F88800616F20F0406086
:101ED0000843C5F88800606FB84204D1E86840F450
:101EE0008010E86007E0404505D10121201D01F088
:101EF00057FF00B10646208840041AD5D5F888005F
:101F0000A16F20F040500843C5F88800A06FB0F1E1
:101F1000805F03D0B0F1005F05D00AE00221201DF0
:101F200001F03EFF03E00221584601F0CFFF00B16F
:101F300006462088000407D5D5F88800E16F20F018
:101F400080400843C5F888002068C00307D555F8CD
:101F5000880FD4F8801020F00040084328603046F5
:101F600000F004B8001002400070004018BCBDE84A
:101F7000E08F00002DE9F0470F4605006BD0494E79
:101F8000306800F00700B84209D2306820F007003E
:101F900038433060306800F00700B8425BD12878E1
:101FA000414C80070AD5A868A16801F0F001884279
:101FB00004D9A16821F0F0010143A1602878C0078D
:101FC0002CD06868032811D0022812D0216898B15B
:101FD000490500293FDAA16821F003010143A1600E
:101FE000FFF768F9804641F2883910E021688901DD
:101FF000EFE721688903ECE78907EAE7FFF75AF979
:10200000A0EB0801494502D90320BDE8F087A0688C
:10201000696800F00C00B0EB810FEFD128788007E1
:102020000AD5A868A16801F0F001884204D2A1682D
:1020300021F0F0010143A160306800F00700B842D0
:102040000BD9306820F0070038433060306800F06A
:102050000700B84201D00120D7E72878400705D50E
:10206000A068E96820F4E0600843A06028780007D1
:1020700006D5A068296920F4605040EAC100A0603C
:1020800000F03EF8A168094AC1F30311515C01F068
:102090001F01C8400649086006480068BDE8F047CF
:1020A000FFF7A8BA00200240001002405448000880
:1020B00030000020080000200548064900688968B3
:1020C000054AC1F30221515C01F01F01C84070476D
:1020D00030000020001002409448000805480649DE
:1020E00000688968054AC1F3C221515C01F01F01F3
:1020F000C84070473000002000100240944800089B
:1021000070B52549002318468A68CC6812F00C0285
:1021100004F00306214C4FEA440509D00C2A05D0EF
:10212000042A32D0082A00D1284670BD012E10D1D1
:102130000B681B0704D4D1F89430C3F3032302E0E7
:102140000B68C3F30313164E56F82330DAB10C2A8A
:10215000EBD1C86800F00300022818D0032818D07B
:102160001846CA68CB68C2F30212C3F3062343437E
:10217000521CB3FBF2F2C868C0F34160401C40003F
:10218000B2FBF0F070BD184670BD204670BD204611
:10219000E7E72846E5E70000001002400024F400CD
:1021A000644800082DE9F84304006FD0FD4DA8688D
:1021B00000F00C06E86800F003072078C00664D53C
:1021C00076B10C2E01D1012F0AD0A0690028286811
:1021D0007AD040F001002860FFF76CF880465DE09F
:1021E0002868800702D5A0690028DED0216A286807
:1021F000000703D5286800F0F00004E0D5F894004B
:10220000F02202EA1010814216D9084601F0E4FEDD
:1022100000283BD1286840F0080028602868216A1F
:1022200020F0F000084328606868E16920F47F40EE
:1022300040EA0120686016E0286840F00800286045
:102240002868216A20F0F000084328606868E16986
:1022500020F47F4040EA0120686026B9206A01F03E
:10226000BBFE0028D5D1FFF74BFFA968CE4AC1F3CA
:102270000311515C01F01F01C840CC490860CC48F3
:102280000068FFF7B7F900287ED12EE0CAE000BF52
:10229000FFF710F8A0EB0800022876D8286880071E
:1022A000F6D5286840F0080028602868216A20F0E8
:1022B000F000084328606868E16920F47F4040EA44
:1022C0000120686011E0FFE720F001002860FEF7C0
:1022D000F1FF804606E000BFFEF7ECFFA0EB080030
:1022E0000228DAD828688007F6D42078C00740D0C2
:1022F000082E18D00C2E01D1032F14D06068B0F531
:10230000803F17D0B0F5A02F286817D020F4803078
:102310002860286820F4802028606068E0B1FEF71B
:10232000C9FF804614E02868800322D56068002831
:1023300078D01EE0286840F48030EDE740F480203B
:102340002860F7E7FEF7B6FFA0EB08006428A4D8E2
:1023500028688003F6D50CE0FEF7ACFF804605E068
:10236000FEF7A8FFA0EB0800642896D82868800331
:10237000F6D4207880073BD5042E11D00C2E01D145
:10238000022F0DD0E06801E086E1D6E00028286841
:102390001ED040F480702860FEF78CFF07460CE0EA
:1023A000286840050CD5E0680028C1D008E000BFCF
:1023B000FEF780FFC01B022893D828684005F7D598
:1023C0006868217C20F0F85040EA016068600FE006
:1023D00020F480702860FEF76DFF074605E000BF1F
:1023E000FEF768FFC01B0228B1D828684005F7D463
:1023F0002078000729D560690028D5F8940012D00C
:1024000040F00100C5F89400FEF754FF074604E0D1
:10241000FEF750FFC01B022899D8D5F8940080071A
:10242000F6D512E000E120F00100C5F89400FEF7B7
:1024300041FF074605E000BFFEF73CFFC01B022836
:102440007BD8D5F894008007F6D42078400766D56D
:10245000A86D0027C00008D4A86D40F08050A86582
:10246000A86D012700F08050009052480168C9050E
:1024700012D40168814641F480710160FEF71AFFB1
:10248000804605E0FEF716FFA0EB0800022854D8AE
:10249000D9F80000C005F5D5A068012816D0052898
:1024A000D5F8900017D020F00100C5F89000D5F8BD
:1024B000900020F0040000BFC5F89000A06841F231
:1024C0008839C0B1FEF7F6FE80460FE0D5F89000DF
:1024D00040F00100F0E740F00400C5F89000F5E797
:1024E000FEF7E8FEA0EB0801494526D8D5F8900094
:1024F0008007F5D50EE0FEF7DDFE804606E000BF62
:10250000FEF7D8FEA0EB0801494516D8D5F8900093
:102510008007F5D41FB1A86D20F08050A865A06A8F
:10252000F0B302280AD00C2E7ED0286820F08070EC
:102530002860FEF7BFFE0446B0E0ACE0E868E26A5F
:1025400000F00301914229D1216B00F070020901D2
:102550001039914222D1626B00F4FE41B1EB022F9F
:102560001CD1A26B00F40031072A01D0012200E047
:102570000022914212D1A18F00F4C00249084905FE
:10258000A1F50011914209D194F8401000F0C0600B
:1025900049084906A1F1007181425ED00C2E0BE082
:1025A00072E0000000100240544800083000002093
:1025B000080000200070004079D02868400176D4DF
:1025C0002868C00073D4286820F080702860FEF767
:1025D00071FE064605E000BFFEF76CFE801B022878
:1025E00059D828688001F7D4D4E90B016FF00F02A5
:1025F00002EB01110843A18F5204490802EB41513B
:10260000626B41EA0221084394F840104FF07E4289
:10261000490802EB41610843A16B090940EA4140C6
:10262000E968244A114000E041E00843E860286876
:1026300040F080702860E86840F08070E860FEF745
:1026400039FE044605E000BFFEF734FE001B0228F9
:1026500021D828688001F7D527E02868800124D494
:10266000286840F080702860E86840F08070E8607A
:10267000FEF720FE044604E0FEF71CFE001B0228C5
:1026800009D828688001F7D50FE000BFFEF712FED9
:10269000001B022802D90320BDE8F88328688001C6
:1026A000F4D4E86804490840E8600020F4E7012019
:1026B000F2E700008C809DF9FCFFEEFE10B5401E95
:1026C000B0F1807F01D3012010BD4FF0E0246061A4
:1026D0000F21601702F089F80020A0610720206117
:1026E000002010BD7047704770470000F0B590F8AB
:1026F0003C20012A39D0012480F83C40022280F895
:102700003D20026853689568194E1A4FB24201D0B5
:10271000BA4204D123F4700C4B6843EA0C0323F053
:10272000700C0B6843EA0C0353600268B24210D08D
:10273000B2F1804F0DD0104B9A420AD00F4B9A4203
:1027400007D00F4B9A4204D0BA4202D00D4B9A42A6
:1027500004D1896825F080031943916080F83D40D9
:10276000002180F83C100846F0BD0220F0BD0000BA
:10277000002C0140003401400004004000080040EB
:10278000000C00400040014010B590F83C20012AA8
:102790001FD0012280F83C200F4B02689A4208D0DB
:1027A000B2F1804F05D00D4B9A4202D00C4B9A42A9
:1027B00006D1136E23F4E03401F4E03323431366AF
:1027C000026821F4E0311165002180F83C100846D0
:1027D00010BD022010BD0000002C0140000400408C
:1027E0000034014010B5040003D094F83D0010B14E
:1027F00007E0012010BD002084F83C00204600F0D6
:1028000023F8022084F83D00211D206801F0B6FC69
:10281000012084F8480084F83E0084F83F0084F8E2
:10282000400084F8410084F8420084F8430084F8B2
:10283000440084F8450084F8460084F8470084F892
:102840003D00002010BD000008B501682B48B1F123
:10285000804F11D02A4A914217D1816D41F0020177
:102860008165806D002200F00200009011461D205D
:10287000FEF71EFF1D203DE0816D41F001018165E5
:10288000806D00F00100009008BD1E4A91420ED1FB
:10289000816D41F004018165806D002200F004002B
:1028A000009011461E20FEF703FF1E2022E0164A6C
:1028B00091420ED1816D41F008018165806D002249
:1028C00000F00800009011463220FEF7F1FE3220A1
:1028D00010E00E4A9142D7D1016E41F48031016679
:1028E000006E002200F48030009011461820FEF7A0
:1028F000DFFE1820BDE80840FEF7CCBE0010024005
:102900000004004000080040000C0040004001406E
:1029100070B5044690F83C000025012817D0012628
:1029200084F83C60022084F83D00226890682F4BB8
:10293000184020F47F4090600868502838D00DDCA3
:1029400020284FD005DC90B3102811D14AE0022096
:1029500070BD302846D040280AD13BE060282FD0F7
:1029600070280DD0B0F5805F03D0B0F5005F12D0B5
:10297000012584F83D60002084F83C00284670BDA5
:10298000CB68D1E90121206801F058FC20688168FA
:1029900041F0770109E0CB68D1E90121206801F01D
:1029A0004DFC2068816841F480418160E1E719E0D5
:1029B000CA684968206801F09BFC5021206806E045
:1029C000CA684968206801F0A4FC6021206801F011
:1029D0003FFCCEE7CA684968206801F089FC4021C5
:1029E0002068F4E7226801461046F0E788FFFEFF02
:1029F00070472DE9F04104460068C66805694FF04C
:102A00000007A90713D5B10711D5F91E01610120EF
:102A10002077206880698007204602D0FFF7E8FF12
:102A200004E000F089F8204600F087F8277768076F
:102A300016D5700714D521686FF0040008610220D4
:102A400020772068806910F4407F204602D0FFF78D
:102A5000CFFF04E000F070F8204600F06EF8277712
:102A6000280715D5300713D521686FF008000861D5
:102A7000042020772068C0698007204602D0FFF735
:102A8000B7FF04E000F058F8204600F056F827772A
:102A9000E80616D5F00614D521686FF0100008611D
:102AA000082020772068C06910F4407F204602D0BB
:102AB000FFF79EFF04E000F03FF8204600F03DF8ED
:102AC0002777E80708D0F00706D021686FF00100EB
:102AD0000861204600F032F8280608D5300606D5F1
:102AE00021686FF0800008612046FFF7FCFDE805D3
:102AF00008D5300606D521686FF48070086120463D
:102B0000FFF7F0FD680608D5700606D521686FF05E
:102B100040000861204600F03DF8A8060AD5B0063E
:102B200008D521686FF0200008612046BDE8F0411B
:102B3000FFF7DABDBDE8F08170477047704770B5A8
:102B4000044690F83C00012812D0012584F83C503E
:102B5000022084F83D00204601F082FB01004FF086
:102B6000000007D084F83D5084F83C00012070BD7F
:102B7000022070BD2168CA6822F04002CA60216844
:102B8000CA6822F48042CA6084F83D5084F83C0050
:102B9000002070BD70477047704770472DE9F041C5
:102BA00002680446D0691168936840F60F05284210
:102BB0004FF000054FF0020605D187067ED58F063F
:102BC0007CD5A16E2BE1DFF884C203F0010701EA96
:102BD0000C0C57EA0C0C71D05FEAC07C0CD05FEA99
:102BE000C15C09D54FF0010CC2F820C0D4F8842094
:102BF00042F00102C4F88420820709D5DA0707D021
:102C000022681662D4F8842042F00402C4F88420BA
:102C100042070AD5DA0708D0236804221A62D4F8DA
:102C2000842042F00202C4F8842002070CD501F08F
:102C300020023A4308D0236808221A62D4F884207C
:102C400042F00802C4F8842002050BD54A0109D5D8
:102C500023684FF400621A62D4F8842042F0200204
:102C6000C4F88420D4F88420002A36D0800605D504
:102C7000880603D5A16E09B120468847D4F88400A0
:102C800021688968490602D410F0280F27D0204611
:102C900001F013FC2068806840061BD520680830CE
:102CA00050E8001F21F0400140E80012002AF5D151
:102CB000606F78B166498163606F00E015E0FEF7F0
:102CC0002EF9002809D0606F816B00E02046BDE836
:102CD000F04108472046FFF760FFBDE8F08120463D
:102CE000FFF75BFFC4F88450F7E7D4F860C02027F3
:102CF000BCF1010F7ED15FEAC06C7FD55FEAC16C89
:102D00007CD51020106220688068400643D5616F32
:102D1000086840680004000CDFD0B4F858208242F4
:102D2000DBD9A4F85A000868006880062BD4216813
:102D300051E8000F20F4807041E80002002AF6D12B
:102D40002068083050E8001F21F0010140E800121F
:102D5000002AF5D12068083050E8001F21F040011A
:102D600040E80012002AF5D1C4F88070256620687A
:102D700050E8001F21F0100140E80012002AF6D1AF
:102D8000606FFEF7A7F86666B4F85800B4F85A10FA
:102D9000401A81B22CE0B4F85800B4F85A10401A26
:102DA00081B2B4F85A00002897D0002995D0226843
:102DB00052E8000F20F4907042E80003002BF6D197
:102DC0002068083050E8002F22F0010240E800237C
:102DD000002BF5D1C4F880702566A566226852E8FC
:102DE000000F20F0100042E80003002BF6D16666C9
:102DF000204600E002E0FFF7CEFE6EE7C60209D5EE
:102E00005B0207D54FF4801010622046BDE8F04108
:102E1000FFF7C2BE020606D50A0604D5E16E0029F8
:102E20007FF454AF59E74006E7D54806E5D520467C
:102E3000026852E8001F21F0400142E80013002B15
:102E4000F6D1C767C56600F081F846E720010004A7
:102E5000A744000810B5040002D0E06F10B107E0ED
:102E6000012010BD002084F87800204600F026F8EC
:102E70002420E0672068016821F001010160606A98
:102E800010B1204601F057FA204601F03DFB012821
:102E9000E7D02068416821F4904141602068816852
:102EA00021F02A0181602068016841F00101016080
:102EB0002046BDE8104001F0A2BA000010B5A8B04D
:102EC0000446142122A8FDF746FA88216846FDF73A
:102ED00042FA1B49206888422FD104200024009028
:102EE00010946846FEF76EFE08B1FDF7ACFA15487F
:102EF000816D41F480218165816D01F480212791EC
:102F0000C16C41F00401C164C06C22A900F004004E
:102F10002790302022900220CDE923040320259021
:102F2000072026900848FEF7ABF80022114627201C
:102F3000FEF7BEFB2720FEF7ADFB28B010BD00005A
:102F40000048004000100240000800487047FEE7BB
:102F50000148FEF70BBA0000980000200148FEF778
:102F600039BA0000980000200148FEF7FFB90000C0
:102F7000EC0000200148FEF72DBA0000EC00002014
:102F8000806A0021826B02B19163C26B02B19163CE
:102F900000F0F0BA10B50022CC074FF0280306D09D
:102FA00090F84140422233EA040400D0F2228C0718
:102FB00007D590F8414042F04402A34301D042F0CB
:102FC000B0020B0401D542F0B802102904D0202928
:102FD00005D0402906D007E042F0900204E042F01C
:102FE000200201E042F04002006801689143016064
:102FF00010BD01688A69D243920701D400228A6217
:1030000000688169C943C90703D0816941F00101A2
:10301000816170472DE9F041044690F84100282174
:10302000814320684FF000054FF0080304D0C361CE
:1030300084F84050BDE8F0818169C1F3004781699F
:10304000FE2202EA11468168C1F30902C168D4F880
:103050000CE001F0FE014FF4004CBEF1020F17D15D
:103060004FF0060E06F006060EEAD21E76450ED189
:10307000A16C491CA164A16C0229DBD1A564C361C8
:1030800084F8405039462046FEF76FF9D2E70E46E5
:1030900061462046FFF77EFF84F840503246F1E754
:1030A00070B5044690F84100002584F84250404A2B
:1030B000E2626585626C0A436264282833D029285D
:1030C00031D02A282FD048F203012046FFF762FFB3
:1030D0002046FFF78EFF94F84100602813D020218E
:1030E00084F8411020688269D24392060BD4826929
:1030F000D243D20605D41022C261606C40F00400B5
:1031000060642068C1616563206B2A4EA16B19B1B0
:10311000112812D0212810D0E16BE9B3122824D055
:10312000222822D03EE003212046FFF733FF28204B
:1031300084F8410020486063E6E72068016849049C
:1031400003D5016821F480410160A06BFDF70EFFFB
:10315000012827D0A06B866384F84050A06BFDF750
:10316000DEFE002823D0A06B18E020680168090467
:1031700003D5016821F400410160E06BFDF7F6FE24
:1031800001280FD0E06B866384F84050E06BFDF7B8
:10319000C6FE00280BD000E004E0E06B816BBDE8C8
:1031A000704008472046BDE8704000F0E3B970BDAC
:1031B0000000FFFF812F0008DD33000870B50446D2
:1031C0001648E06200252563202084F8410084F839
:1031D0004250C8436563400711D42068406A616A61
:1031E0000870606A401C6062208D40B1401E2085DE
:1031F000608D401E6085606C40F00400606448F2A1
:1032000003012046FFF7C6FE21681020C86184F83C
:1032100040502046FEF746F970BD00000000FFFF59
:103220002DE9F04102680446156890F841000E4609
:103230002027D7614FF00008212808D0292806D080
:1032400022280BD02A2809D028280ED014E048F2D2
:1032500001012046FFF79EFE21200CE048F202010A
:103260002046FFF797FE222005E048F203012046A2
:10327000FFF790FE404620632068416841F400411A
:10328000416020684168364A114041602046FFF79E
:10329000B0FEE843410406D42068016821F480416F
:1032A0000160A06B07E0000409D42068016821F4E4
:1032B00000410160E06B10B1006840686085F04338
:1032C00040070FD4206826F00406406A616A08703F
:1032D000606A401C6062208D20B1401E2085608D98
:1032E000401E6085608D18B1606C40F00400606421
:1032F000454684F84280C4F83480606C68B1616CE3
:103300002046FFF7CDFE94F84100282815D131461C
:103310002046BDE8F041FFF751BFE06A114EB042D0
:103320000DD0204600F020F8E66284F84170256355
:1033300084F840502046FEF7B5F8BDE8F08194F8D7
:10334000410084F841702228256384F840502046CB
:1033500002D0FEF736F9F0E7FEF732F9EDE70000AC
:1033600000E800FE0000FFFF70B504460068016839
:10337000002584F84250C9434A0403D4016821F46B
:10338000804104E0090403D4016821F40041016094
:1033900094F841102820292911D094F841102A29A5
:1033A0000CD184F841002220206302212046FFF73F
:1033B000F1FD84F840502046FEF702F970BD84F814
:1033C00041002120206301212046FFF7E3FD84F81E
:1033D00040502046FEF7F5F870BD00002DE9F041A1
:1033E000C56A044690F840008846012826D001208E
:1033F00084F840006FEA0807B8066FEA020605D4B1
:10340000B00603D441462046FFF70AFF3A49F806C2
:103410004FF0807231D4F0062FD4638D102083B129
:103420002168C861606C40F0040060640DB1954291
:103430005ED1616C2046FFF733FE59E00220BDE803
:10344000F08194F84120282A02D1B5F1007F04D000
:1034500094F84120292A05D00CE041462046FFF788
:10346000ADFE45E08D4205D02168C8612046FFF7DA
:10347000C0FD3AE02168C8613AE0780715D47007CA
:1034800013D4608D60B12068406A626A1070606A0F
:10349000401C6062208D401E2085608D401E60852E
:1034A000608D28BB8D4220D122E0380706D430073A
:1034B00004D441462046FFF7ADFD19E0B80717D404
:1034C000B00715D4608D68B1606A216800788862A1
:1034D000606A401C6062608D401E6085208D401EC9
:1034E000208505E0954200D015B92046FFF73CFF46
:1034F000002084F84000A2E70000FFFF70B5012221
:103500000E4D540221462846FDF7CEFE012216023A
:1035100031462846FDF7C8FE00F05EF8002221463D
:103520002846FDF7C1FE00F057F800223146284634
:10353000FDF7BAFEBDE8704000F04EB80004004848
:1035400070B50B4D4FF40074002221462846FDF75C
:10355000ABFE012211022846FDF7A6FE00F03CF862
:1035600021462846BDE870400122FDF79DBE0000BF
:103570000004004810B590F841200021602A05D0D1
:10358000016380F84010FDF72DFF10BD202280F868
:103590004120016380F84010FDF7E6FE10BD0000F9
:1035A00070B50C4C012251022046FDF77DFE00F063
:1035B00013F80122150229462046FDF775FE00F09A
:1035C0000BF8002229462046FDF76EFEBDE870404C
:1035D00000F002B8000400480320401EC0B2FCD234
:1035E0007047000070B50B4E4FF400752946304609
:1035F000FDF755FE084C012802D12068401C2060D0
:1036000029463046FDF74BFE042801D300202060F8
:1036100070BD0000000800480000002000EB8100A1
:10362000006E00F0F84070478068C0F3C00070473B
:103630008068C0F3800070478068C0F380007047E6
:10364000C06810F4406F01D000207047012070471F
:10365000042303EAD15310B518444369C1F304515C
:1036600007248C40A3438A401343436110BD00EB01
:103670008100016E21F00041114301667047000096
:1036800030B589B000240694079418216846089440
:10369000FCF761FE1B481A490425C0E90014846048
:1036A000C460C0E90445047644760121C16180F814
:1036B00020408462C46280F83040446380F838401F
:1036C000FDF7D4FA08B1FCF7BEFE06A90D48069432
:1036D000FCF70CFF08B1FCF7B6FE0B480090062083
:1036E000CDE901047F200594CDE90305694605482D
:1036F000FCF77AFF002801D0FCF7A5FE09B030BD29
:1037000000000450340000204000201970B586B03D
:1037100014216846FCF71FFE2848C16C41F00401E3
:10372000C164C16C01F004010591C16C41F001015B
:10373000C164C16C01F001010591C16C41F002014D
:10374000C164C06C1E4E00F00200059000221021E2
:103750003046FDF7A9FD0420009002250024CDE9A4
:1037600001540D20CDE9034069464FF09040FDF72C
:1037700087FCF01300904FF48810CDE901046946EE
:103780003046FDF77DFC28028DE8310069460D4882
:10379000FDF776FC102000900120CDE90104694678
:1037A00030460394FDF76CFC002211462820FDF7FB
:1037B0007FFF2820FDF76EFF06B070BD00100240AD
:1037C0000004004800080048134810B51149016082
:1037D0001249416000210122C0E9021201614161E8
:1037E0008161C1610162FDF7FFFD08B1FCF72BFEAD
:1037F00000210948FDF764FD08B1FCF724FE002113
:103800000548FDF788FD002803D0BDE81040FCF70F
:103810001ABE10BD0054004098000020FFEAC0000E
:10382000134810B51149016012494160002101227D
:10383000C0E90212016141618161C1610162FDF76C
:10384000D3FD08B1FCF7FFFD00210948FDF738FD65
:1038500008B1FCF7F8FD00210548FDF75CFD0028E4
:1038600003D0BDE81040FCF7EEBD10BD005800408D
:10387000EC000020FFEAC0000B4810B509490160C8
:10388000FF210122C0E901120021C0E903124161B8
:103890008161FEF7F3F8002803D0BDE81040FCF783
:1038A000D2BD10BD001000A04001002010B588B0AE
:1038B00000241748009401940294039404940594FE
:1038C00012490694C0E900144FF6FF71C0E90241A5
:1038D000046144618461FEF785FF08B1FCF7B3FD24
:1038E0004FF48050009069460948FFF711F808B17D
:1038F000FCF7A9FD049404A905480694FEF7F6FE1A
:10390000002801D0FCF79FFD08B010BD0040014029
:10391000B402002010B588B014216846FCF71BFDE6
:1039200000241748059406944FF080410794C0E99D
:103930000014611EC0E9024104618461FEF752FF78
:1039400008B1FCF780FD1020CDE9004069460C4825
:10395000FFF7F5F808B1FCF776FD059405A90848CE
:103960000794FEF7C3FE08B1FCF76DFD0021044883
:10397000FEF70AFF002801D0FCF765FD08B010BD76
:103980008401002010B588B00024174800940194E9
:10399000029403940494059412490694C0E9001417
:1039A0004FF6FF71C0E9024104618461FEF71AFF1E
:1039B00008B1FCF748FD4FF48050009069460A4872
:1039C000FEF7A6FF08B1FCF73EFD049404A90648E3
:1039D0000694FEF78BFE002801D0FCF734FD08B0FA
:1039E00010BD000000040040D001002010B588B0D8
:1039F00000241748009401940294039404940594BD
:103A000012490694C0E900144FF6FF71C0E9024163
:103A100004618461FEF7E6FE08B1FCF714FD4FF483
:103A20008050009069460A48FEF772FF08B1FCF723
:103A30000AFD049404A906480694FEF757FE0028E0
:103A400001D0FCF700FD08B010BD000000080040E8
:103A50001C02002010B588B0002416480094019480
:103A6000029403940494059411490694C0E9001447
:103A7000611EC0E9024104618461FEF7B3FE08B132
:103A8000FCF7E1FC4FF48050009069460948FEF7CE
:103A90003FFF08B1FCF7D7FC049404A9054806943D
:103AA000FEF724FE002801D0FCF7CDFC08B010BDC5
:103AB000000C0040680200200D4810B50B49016061
:103AC0004FF4E1314160002181600C22C160C0E906
:103AD00004128161C16101624162FFF7BBF90028F4
:103AE00003D0BDE81040FCF7AEBC10BD004800405C
:103AF00000030020FEE7FEE730B40021084B0A4631
:103B00005FF0000003EB0014401CC0B26254402878
:103B1000F8D3491CC9B21029F2D330BC00F0A6B8C2
:103B2000880300204F4800B5C16C87B041F02001E8
:103B3000C164C16C01F020010591C16C41F001012B
:103B4000C164C16C01F001010591C16C41F0080133
:103B5000C164C16C01F008010591C16C41F0020122
:103B6000C164C06C694600F0020005904FF44070DB
:103B70000090012001900290022003903A48FDF746
:103B80007FFA0021AE2000F0A5F80021084600F0E1
:103B9000A1F80021102000F09DF80021B02000F0D5
:103BA00099F80021812000F095F800215F2000F0B5
:103BB00091F80021202000F08DF80021092000F06C
:103BC00089F80021A12000F085F80021C82000F02C
:103BD00081F80021A42000F07DF80021A62000F04B
:103BE00079F80021A82000F075F800213F2000F0AE
:103BF00071F80021D32000F06DF80021084600F094
:103C000069F80021D52000F065F80021802000F03F
:103C100061F80021D92000F05DF80021222000F099
:103C200059F80021DA2000F055F80021102000F0AA
:103C300051F80021DB2000F04DF80021302000F089
:103C400049F800218D2000F045F80021722000F095
:103C500041F8FFF751FF0021AF2000F03BF807B01B
:103C600000BD0000001002400004004870B5184E6E
:103C7000002400BF04F1B000C0B2002100F02AF817
:103C80000021084600F026F80021102000F022F85C
:103C9000FFF734FC782000F0DFF9FFF781FC4020CB
:103CA00000F0DAF9FFF77CFC5FF0000506EB051089
:103CB000005D00F0D1F9FFF773FC6D1CEDB2402DF3
:103CC000F4D3FFF73DFC641CE4B2102CD2D370BDDA
:103CD0008803002070B50C460546FFF70FFC7820DE
:103CE00000F0BAF9FFF75CFC0CB1402000E00020C6
:103CF00000F0B2F9FFF754FC284600F0ADF9FFF7E9
:103D00004FFCBDE87040FFF71BBCFDF73FBD70479F
:103D100010B5806A00210163416290F839100829CA
:103D200005D0012180F83910FDF7ABFD10BD026808
:103D30000221D16001680A6842F400320A6000681A
:103D4000016841F00201016010BD2DE9F041984683
:103D500016460F460446069D08E0681C06D0FDF78F
:103D6000A9FAA0EB0800A8420AD84DB120688068E3
:103D7000384000D00120B042EFD10020BDE8F081F2
:103D8000042084F83900E06B40F00100E06301207A
:103D9000F4E700000148FDF777BD00004001002076
:103DA0002DE9F041444C05468846E068002681072D
:103DB00028680DD0E16801F00301814216D1A8B155
:103DC000E0686968C0F30210401C88420ED120E010
:103DD000012804D0022805D0032807D108E0216873
:103DE000890701E021684905002907DB01265FE01A
:103DF0002168890302D421684903F5E7E1686A680C
:103E00006FF00F0321F0730103EB02121143014322
:103E1000E160206820F080602060FDF74BFA0746E3
:103E200005E000BFFDF746FAC01B022837D820681E
:103E30000001F7D4B8F1000F18D0B8F1010F1ED06F
:103E4000287D4FF07E41400801EB4060A96840EAC0
:103E500001202169194A114008432061206840F07F
:103E600080602060FDF726FA07461AE0A868E96836
:103E70000002090940EA41402169114AEBE7288A1A
:103E80001049400801EB4050A96840EA012021692F
:103E90000D4AE0E7FDF70EFAC01B022801D9032600
:103EA00006E020680001F5D52069A9690843206172
:103EB0003046BDE8F081000000100240FF80FFF9AD
:103EC000FF80FDFF0000E0FFFF809FFF2DE9F04134
:103ED0003D4C06468846E0680025810730680DD0D5
:103EE000E16801F00301814216D1A8B1E068716870
:103EF000C0F30210401C88420ED120E0012804D0FB
:103F0000022805D0032807D108E02168890701E0CD
:103F100021684905002907DB012551E02168890353
:103F200002D421684903F5E7E16872686FF00F0376
:103F300021F0730103EB021211430143E160206899
:103F400020F080502060FDF7B5F9074605E000BF7E
:103F5000FDF7B0F9C01B022829D820688000F7D4EB
:103F6000B8F1000F15D0307C4FF07E41400801EBD6
:103F70004060B16840EA01206169144A1140084379
:103F80006061206840F080502060FDF793F907469B
:103F90000FE0B068F1680002090940EA4140616938
:103FA0000B4AEBE7FDF786F9C01B022801D9032570
:103FB00006E020688000F5D560697169084360619A
:103FC0002846BDE8F081000000100240FF80FFF9A4
:103FD000FF80FDFF70470000F8B51C4D0646002429
:103FE000A86DC00002D5FDF7C9FB0DE0A86D40F03B
:103FF0008050A865A86D00F080500090FDF7BEFBD2
:10400000A96D21F08051A965B0F5007F04D0802E04
:1040100007D94FF003040AE0802E08D9A02E01D85A
:1040200004E001D1022402E0702E00D101240848EE
:10403000016821F0070121430160006800F00700DA
:10404000A04201D00120F8BD0020F8BD00100240C0
:1040500000200240704700002DE9F041124F054654
:1040600000244FF400784FF48076280601D5012211
:1040700000E0002241463846FDF716F9FFF7ACFA9A
:10408000012231463846FDF70FF9FFF7A5FA002265
:1040900031463846FDF708F96806641C050EE4B29F
:1040A000082CE2D3BDE8F08100040048FDF78ABA8D
:1040B00010B596B044216846FCF74DF9142111A8BB
:1040C000FCF749F94FF40070FDF724FB08B172B614
:1040D000FEE7FDF78BFB184850F8901F21F0180100
:1040E00001601420009001200290002460210690BD
:1040F000CDE907410221CDE90A100C9019200D905D
:104100000720CDE90E0168461091FEF74BF808B183
:1041100072B6FEE70F2011900320CDE9120401468C
:10412000149411A81594FDF725FF08B172B6FEE7A7
:10413000FDF740FD16B010BD0010024002480168B6
:1041400041F470010160704788ED00E00148FEF71E
:1041500050BC0000B40200200148FEF74ABC000039
:10416000D00100200148FEF744BC00001C020020E2
:104170000148FEF73EBC0000680200202DE9F04730
:104180000268264B264D274E274F284C4FF0804A79
:10419000984209D0504507D0A84205D0B04203D07C
:1041A000B84201D0A04204D122F0700C4A6842EA21
:1041B0000C02DFF87CC0DFF87C80DFF87C9098424E
:1041C0000FD050450DD0A8420BD0B04209D0B84214
:1041D00007D0A04205D0604503D0404501D04845F6
:1041E00003D122F44075CA682A434D6922F0800247
:1041F0002A4302608A68C2620A688262984207D0D3
:10420000A04205D0604503D0404501D0484501D1CA
:104210000969016301214161BDE8F087002C01407B
:104220000004004000080040000C00400034014041
:1042300000400140004401400048014010B584683E
:1042400042EA032224F47F440A432243826010BDE1
:10425000826822F070020A4342F0070181607047D1
:1042600070B505680024AA6822F070034A681A43F2
:104270001E4B1A400B681343AB604A6812F00F0FD5
:1042800031D11211082A2ED2DFE802F02E2E2E2E66
:104290000B2127040B69D1E902210068FFF7CEFF4B
:1042A00022E00A68052A10D00268136A156A25F010
:1042B0000105156202689569096925F0F00545EA6E
:1042C00001119161006803620EE0012070BD0A696E
:1042D0008968006800F00CF806E00A6989680068DF
:1042E00000F017F800E00124204670BDF8FFFEFF43
:1042F00010B5036A046A24F001040462846924F09E
:10430000F00444EA021423F00A020A4384610262C0
:1043100010BD10B5036A046A24F0100404628469B5
:1043200023F0A00324F4704444EA023243EA01116A
:104330008261016210BD90F82410090706D501685A
:104340004A68436B22F400421A434A6090F82410F2
:10435000C90706D001684A68836A22F400321A430A
:104360004A6090F82410890706D501684A68C36A34
:1043700022F480321A434A6090F82410490706D587
:1043800001684A68036B22F480221A434A6090F85D
:104390002410C90606D501688A68836B22F480520E
:1043A0001A438A6090F82410890606D501688A6845
:1043B000C36B22F400521A438A6090F82410490615
:1043C00011D501684A68036C22F480121A434A60CE
:1043D000016CB1F5801F06D101684A68436C22F474
:1043E000C0021A434A6090F82410090606D50168F5
:1043F0004A68806C22F4002202434A6070472DE92B
:10440000F84300260446C0F88460FCF753FF80465A
:10441000206800684FF0200500076FF07E4712D536
:104420004346002229042046009700F091F950B13C
:10443000216851E8000F20F0800041E80002002AC6
:10444000F6D1E56721E020680068400722D54346A1
:1044500000224FF480012046009700F079F9C8B19E
:10446000216851E8000F20F4907041E80002002A12
:10447000F6D12068083050E8001F21F0010140E823
:104480000012002AF5D1C4F8805084F87860032027
:10449000BDE8F883E567C4F8805044F8606F666053
:1044A00026760020F4E710B5806A0021A0F85A10A3
:1044B000A0F85210FEF771FB10BD016851E8002F03
:1044C00022F4907241E80023002BF6D101680831F4
:1044D00051E8002F22F0010241E80023002BF5D122
:1044E000016E012908D1026852E8001F21F0100175
:1044F00042E80013002BF6D12021C0F880100021E3
:1045000001668166704700002DE9F04104460168AC
:1045100080682269E3691043626900251A431043E9
:10452000814F0A68814B1A4002430A602068416843
:10453000E26821F44051114341602168A069B94209
:1045400001D0226A10438A6822F4306202438A60F2
:104550007749226877488A420DD1D0F8880010F058
:10456000030006D0012866D0022854D0032851D178
:1045700063E001204FE070498A420BD1D0F88800F7
:1045800010F00C0047D0042845D0082851D00C2842
:1045900040D152E069498A420BD1D0F8880010F02E
:1045A000300038D0102846D0202842D0302831D1D1
:1045B00043E063498A420BD1D0F8880010F0C00074
:1045C00029D0402837D0802833D0C02822D134E0E9
:1045D0005C498A420ED1D0F8880010F440701AD09D
:1045E000B0F5807F27D0B0F5007F22D0B0F5407FB6
:1045F00010D122E0BA420DD1D0F8880010F440600A
:1046000009D0B0F5806F16D0B0F5006F11D0B0F5BD
:10461000406F12D010204C4900264FF40043BA429C
:104620002ED160B102280DD004280DD008286FD1FA
:104630000EE00220EFE70420EDE70820EBE7FDF7AE
:104640003BFD03E00B4603E0FDF75AFD030060D09D
:10465000626802EB420098425AD8B3EB023F57D847
:10466000190E1B025008181871410023FBF7FCFDBE
:10467000364AA0F5407191424AD82168C86048E0A6
:10468000E2694FF6EF779A4227D1092840D2DFE856
:1046900000F005080D3F213F3F3F0E00FDF70CFDE8
:1046A00001E0FDF71BFD030001D132E00B4660681D
:1046B000590001EB5001B1FBF0F0A0F11001B9423B
:1046C00026D84FF6F0710140C0F342000143206844
:1046D000C1601EE0FDF714FDE5E7092818D2DFE808
:1046E00000F005080D171D1717170E00FDF7E4FC65
:1046F00001E0FDF7F3FC030001D10AE00B4660681E
:1047000003EB5001B1FBF0F0A0F11001B94208D960
:104710000125A6662846E666BDE8F081FDF7F0FCB7
:10472000E9E780B2A9E7000000800040F369FFEFED
:1047300000380140001002400044004000480040A2
:10474000004C0040005000400024F400FFFC0F002B
:104750002DE9F047994617460E4604464FF00008EB
:10476000089D2FE0681C2DD0FCF7A4FDA0EB0900EC
:10477000A84214D89DB120680168490722D5C169B3
:10478000C94309070DD4082505622046FFF795FEA9
:10479000C4F8845084F878800120BDE8F0870320B5
:1047A000FBE7C069C04300050CD421684FF40060EA
:1047B00008622046FFF781FE2020C4F8840084F8B8
:1047C0007880ECE72068C06936EA000004D0002059
:1047D000B842C7D00020E0E70120F9E70148FEF722
:1047E000DDB9000000030020FEE70907090E0028DC
:1047F00004DB00F1E02080F80014704700F00F00A7
:1048000000F1E02080F8141D7047FCF7E3FEFFF78D
:104810004FFCFEF77BFFFEF733FFFEF7D5FFFEF7F9
:10482000FFFFFFF729F8FFF775F8FFF745F9FFF7E6
:10483000A9F8FFF7DBF8FFF70DF9FFF737F8FEF7F8
:10484000D1FEFFF76FF9FEE74FF04070E1EE100A7E
:104850007047000000000000000000000102030497
:1048600006070809A0860100400D0300801A060013
:1048700000350C0040420F0080841E0000093D00FE
:1048800000127A000024F40000366E010048E801AE
:10489000006CDC020000000001020304BC480008B8
:1048A0000000002034000000C4010008F0480008A7
:1048B00034000020B40E0000E001000800000000F9
:1048C00001000000100000000000000000000000D7
:1048D00000000000000000000000000001000000D7
:1048E00000000000000000000000000000093D0082
:040000050800018965
:00000001FF
