:020000040800F2
:10000000681E0020290200089B350008752C000896
:1000100099350008950500083941000800000000E6
:10002000000000000000000000000000B13D0008DA
:100030001106000800000000D9380008513E0008F1
:10004000430200084302000843020008430200087C
:10005000430200084302000843020008430200086C
:10006000430200084302000843020008430200085C
:10007000430200084302000843020008430200084C
:10008000430200084302000843020008430200083C
:100090004302000843020008430200081306000858
:1000A00043020008FD3E0008F13E0008430200083C
:1000B000430200084302000843020008430200080C
:1000C00043020008430200084302000843020008FC
:1000D00043020008430200084302000843020008EC
:1000E00043020008430200084302000843020008DC
:1000F00043020008430200084302000843020008CC
:1001000043020008430200084302000843020008BB
:100110004302000843020008093F0008153F000899
:10012000430200084302000843020008430200089B
:10013000430200084302000843020008430200088B
:10014000430200084302000843020008430200087B
:10015000430200084302000843020008430200086B
:10016000430200084302000843020008430200085B
:1001700043020008430200080000000000000000E5
:10018000430200084302000800F002F800F03CF8C7
:100190000AA090E8000C82448344AAF10107DA45E2
:1001A00001D100F031F8AFF2090EBAE80F0013F0F8
:1001B000010F18BFFB1A43F001031847246F00001A
:1001C000446F0000103A24BF78C878C1FAD85207AB
:1001D00024BF30C830C144BF04680C6070470000C1
:1001E0000023002400250026103A28BF78C1FBD840
:1001F000520728BF30C148BF0B6070471FB504F0DD
:10020000F8FE1FBD10B510BD00F0F3F81146FFF762
:10021000F5FF04F0CFFA00F011F903B4FFF7F2FF95
:1002200003BC00F019F9000009488047094800475D
:10023000FEE7FEE7FEE7FEE7FEE7FEE7FEE7FEE796
:10024000FEE7FEE704480549054A064B70470000F3
:10025000E13E00088901000868180020681E00209F
:10026000681A0020681A002010B54C1084EA530464
:1002700004D54042C1F1000138BF491E1B4204D5DC
:100280005242C3F1000338BF5B1E00F03BF814F08C
:10029000804F04D04042C1F1000138BF491E14F024
:1002A000004F04D05242C3F1000338BF5B1E10BDA3
:1002B0004FF0000200B5134694469646203922BFFF
:1002C000A0E80C50A0E80C50B1F12001BFF4F7AF4A
:1002D000090728BFA0E80C5048BF0CC05DF804EB2C
:1002E000890028BF40F8042B08BF704748BF20F89A
:1002F000022B11F0804F18BF00F8012B7047704798
:100300007047704753EA020C00F069802DE9F04B0A
:100310004FF00006002B1FBFB3FA83F503FA05F474
:1003200024FA05F65E4012BF1643B2FA82F502FACD
:1003300005F4C5F120051EBF22FA05FC44EA0C04B1
:10034000203556EA044C4FEA144418BF641C4FF0A1
:1003500000084FF00009904271EB030C39D30029DB
:1003600019BFB1FA81F701FA07F6B0FA80F700FA7F
:1003700007F6C7F120071EBF20FA07FC46EA0C0665
:100380002037B6FBF4FCA7EB0507103F07F01F0B67
:10039000CBF120060CFA0BFB2CFA06F644BFB34651
:1003A0000026202FA4BF5E464FF0000B5BEA060C30
:1003B00008BF4FF0010B19EB0B09ABFB027C48EBBC
:1003C0000608C01B06FB02CC0BFB03CC71EB0C0137
:1003D000C1E70B46024641464846BDE8F08B13B5DF
:1003E0004FF000004FF00001AFF30080BDE81C406B
:1003F0007047754600F02CF8AE4605006946534636
:1004000020F00700854618B020B5FFF71BFFBDE8B8
:1004100020404FF000064FF000074FF000084FF06B
:10042000000B21F00701AC46ACE8C009ACE8C009FC
:10043000ACE8C009ACE8C0098D46704710B5044669
:10044000AFF300802046BDE81040FFF7E6BE000095
:10045000004870470818002001491820ABBEFEE78D
:100460002600020070470000F8B504460020009006
:100470002068816811F0010F41D18168214A114241
:100480002ED18168D5432940491C81601E4880686F
:1004900000F0E07000020DD51C481D490068B0FB5B
:1004A000F1F0401C00EB4000800000E0401E009096
:1004B0000028FBD100F0FCFE06461BE0816811F02D
:1004C000010F03D181682940491C816000F0F0FED2
:1004D000801B02280ED920680068C043C00709D0DD
:1004E000606D40F010006065A06D40F00100A065F7
:1004F0000120F8BD20680168C943C907DED100208A
:10050000F8BD00003F0000800003045034000020CC
:10051000400D03002DE9F041074690460E460820A5
:1005200000F030F80446092000F02CF805460A20B7
:1005300000F028F8210441EA052101430B2039602D
:1005400000F020F804460C2000F01CF805460D20B1
:1005500000F018F8210441EA052101430E20316022
:1005600000F010F804460F2000F00CF805461020AB
:1005700000F008F8210441EA05210143C8F8001001
:10058000BDE8F08102463B21014802F00BBC0000AF
:10059000F0000020FEE720F0030000EB4001C1EB7B
:1005A000C010000C00EE100AF1EE080AB8EE400A86
:1005B00030EE600A7047000010B520F0030004F030
:1005C000ABFA9FED0D1B53EC112B04F0B9FA9FED24
:1005D0000C1B53EC112B04F0B3FA04F0C3F904F034
:1005E00097FC9FED091B53EC112B04F0A7FB04F0C3
:1005F000B9F900EE100A10BDD7A3703D0AF76540A7
:10060000000000000000F03ECDCCCCCCCC6C4740CC
:1006100070474FF4007000F025BD72B6FEE7000091
:1006200000B587B0694600900620019002907F20B7
:1006300003900420049000200590084800F0A6F8DC
:10064000064800F04DFC0A21044800F0CBFB0348AB
:1006500000F09BFA07B080B200BD00003800002017
:100660002DE9F04100250E4607462C4608E03846A5
:10067000FFF7D6FF0544052000F0D2FC641CE4B26D
:10068000B442F4D3B5FBF6F080B2BDE8F0810000CF
:100690002DE9F047044690F850009AB00E464FF00E
:1006A0000009012816D0012084F850000025159576
:1006B0001695324F2068B84210D1DFF8C480CDF8CB
:1006C0000080404602F00CFD8246206802F008FDE2
:1006D00060B10EE002201AB0BDE8F087606D40F016
:1006E0002000606584F850500120F4E7BAF1000F53
:1006F0000AD0606D40F0200060654FF0010900BF36
:1007000084F850504846E6E71E4831681E4A0029E2
:10071000816840F61F7321F460411CD094F830C00A
:1007200041EA4C31D6F804C041EA0C018160B96855
:10073000D8F8087001F0010107F001079268394309
:1007400002F001021143DBD1B268316811438268C3
:100750009A4311430FE08160B968D8F8086001F04E
:10076000010106F001069268314302F001021143D3
:10077000C6D1816899438160C2E70000000004503F
:100780000001045000030450000204502DE9F84F0A
:1007900000270446009790F85000DFF8B8930D4604
:1007A000B846012811D0012684F85060206802F074
:1007B00093FC60B1606D40F0200060655FF0010760
:1007C00084F85080384600F0DDB90220FBE7686805
:1007D000052808D8022825D0032825D0042825D0AC
:1007E000052825D0062021680C2303EA901319441C
:1007F0002A680B6B00F01F004FF01F0C0CFA00FC76
:10080000C2F3846223EA0C03824013430B63206823
:1008100002F062FC8246206802F05AFC5AEA0000AC
:1008200009D09AE00C20DEE71220DCE71820DAE796
:100830004FF48070D7E7AA682968206802F05CFC52
:1008400020686969C268C2F3C102520091402A69F6
:10085000042A0FD000EB82002B68026EDFF8F8C28A
:1008600003F0F84302EA0C020B431A4342F0004142
:10087000016672E0002102F025FC400320684FF081
:10088000000172D002F01EFC90FAA0F0B0FA80F1E4
:10089000286842036ED090FAA0F0B0FA80F081424E
:1008A00004D100221146206802F035FC01212068A5
:1008B00002F008FC400320684FF001015DD002F017
:1008C00001FC90FAA0F0B0FA80F12868420359D0F8
:1008D00090FAA0F0B0FA80F0814204D10022012108
:1008E000206802F018FC0221206802F0EBFB4003B4
:1008F00020684FF0020148D002F0E4FB90FAA0F02B
:10090000B0FA80F12868420344D090FAA0F0B0FA1F
:1009100080F0814204D100220221206802F0FBFB1A
:100920000321206802F0CEFB400320684FF0030152
:1009300033D002F0C7FB90FAA0F0B0FA80F128683B
:1009400042032FD090FAA0F0B0FA80F0814204D197
:1009500000220321206802F0DEFB2068816811F08C
:10096000010F22D0ABE000E004E002F0ABFBC0F3EB
:1009700084618DE7C0F3846091E702F0A3FBC0F3CC
:100980008461A2E7C0F38460A6E702F09BFBC0F39A
:100990008461B7E7C0F38460BBE702F093FBC0F368
:1009A0008461CCE7C0F38460D0E72A7B296850F8E3
:1009B000B03FC1F3120C23EA0C0302F0180C674A93
:1009C00022FA0CF20A4013430360E968494576D1E4
:1009D000286841031BD090FAA0F1B1FA81F1491CBB
:1009E00001F01F0109294FEA403131D8002911D007
:1009F00090FAA0F1B1FA81F101F1010101F01F01BA
:100A000006FA01F609D100BFC0F3846109E0C0F322
:100A10008461E4E7C0F38461EEE790FAA0F1B1FAF3
:100A200081F101F1010101F01F0146EA816102D16A
:100A3000C0F3846003E090FAA0F0B0FA80F000F117
:100A4000010000F01F0000EB400041EA005132E0DD
:100A500000290ED090FAA0F1B1FA81F101F1010163
:100A600001F01F0106FA01F606D100BFC0F3846150
:100A700006E0C0F38461F1E790FAA0F1B1FA81F1E8
:100A800001F1010101F01F0146EA816102D1C0F3C9
:100A9000846003E090FAA0F0B0FA80F000F1010069
:100AA00000F01F002E4A00EB400002EB005041EA2C
:100AB000000141F00071AA68206802F01DFB29487E
:100AC0002A6802423FF47CAE27488168274E284BB3
:100AD000284D01F0E071B2421DD10E021BD42268F4
:100AE0009A4202D0AA427FF46BAE826841F40001C0
:100AF00022F0E0720A4382601F4820490068B0FB80
:100B0000F1F0401C00EB4000800000E0401E00902F
:100B10000028FBD154E61A4EB24209D1CE0107D4C7
:100B200022689A4201D0AA42F4D141F080710AE0D1
:100B30006FF00045EA42EDD14A02EBD422689A42B6
:100B4000E8D141F48001826822F0E0720A438260B9
:100B500036E6000000007F4000F0FF03FFFF0700C3
:100B6000000020FE0000088000030450000052C76F
:100B7000000004500002045034000020400D030027
:100B8000000084CB18BCBDE8E08F0068006C7047A3
:100B9000F8B54FF0000504002E46009502D0606DB8
:100BA00010B107E00120F8BD204600F0D3F8A6659B
:100BB00084F8506020688168C1F3407119B1816880
:100BC0005A4A1140816020688168C1F3007189B977
:100BD0008168574A114041F080518160554856491B
:100BE0000068B0FBF1F04000801C00E0401E009067
:100BF0000028FBD120688168C1F3007141B9616DA3
:100C000041F010016165A16D41F00101A16501256F
:100C100002F062FA616DC90600D430B1606D40F037
:100C20001000606501252846F8BD606D20F48070D5
:100C300040F0020060652068806810F0010F15D157
:100C40003E4880683E4900F00100896801F00101DA
:100C500008433C49896801F00101084306D13A493B
:100C600060688A6822F47C1202438A60E168606BE3
:100C7000627E0843A16841EA4231084394F820109B
:100C800040EA0140012904D1A18C304A02EB4141E4
:100C90000843A16A29B101F47071E26A014342EA92
:100CA00001002268D1682A4B19400143D1602068B5
:100CB00002F00EFAA8B9207E94F83010800340EAC2
:100CC00041012068C26844F202039A430A43C260A9
:100CD00094F8380001280CD02068016921F0010146
:100CE0000161206901282068016B21F00F0111D0FA
:100CF00013E0D4E90F010843D4E91112114308436A
:100D000021680A6940F2FC739A43104340F00100E5
:100D10000861E6E7E269521E11430163606D20F04D
:100D2000020040F0010060657DE70000C0FFFF5F4A
:100D3000C0FFFF7F34000020400D0300000004507E
:100D40000001045000020450000304500000FEFFA4
:100D500007C0F0FF10B5A8B00446142122A8FFF781
:100D6000A7FA88216846FFF7A3FA1C492068884241
:100D700031D14FF48040009080031E9001200190FB
:100D800002901020039007200224CDE9040488017A
:100D9000CDE90640684600F0B3FF08B1FFF73DFC1F
:100DA0000F48C16C41F40051C164C16C01F40051A1
:100DB0002791C16C41F00101C164C06C22A900F00F
:100DC000010027900B20CDE92240002024904FF015
:100DD000904000F053F928B010BD0000000004500E
:100DE000001002402DE9F04104463A480F46816860
:100DF00001F01F05616908290FD085B1052D0ED0BE
:100E0000092D0CD0806800F4604060B1606D40F046
:100E1000200060650120BDE8F081082604E020681C
:100E2000C068C007F1E7042600F042FA804615E0EA
:100E3000781C13D000F03CFAA0EB0800B84200D8B0
:100E400067B920680068304208D1606D40F0040046
:100E50006065002084F850000320DCE7206800680B
:100E60003042E5D0606D40F400706065206802F0AB
:100E70003BF980B1607E70B92068006800070AD530
:100E8000606D20F480706065606DC00403D4606D97
:100E900040F001006065104A20681049904201D17D
:100EA0000B4600E00346834210D07DB1052D0DD0E6
:100EB000092D0BD0904200D00146C968082E07D0FA
:100EC000490401D40C2101600020A4E7C168F5E7C2
:100ED0000821F8E70003045000010450000004500A
:100EE0002DE9F04104463748806800F01F0520686E
:100EF00002F0F2F818B102210846BDE8F08194F83A
:100F0000500001280CD0012084F850002046FFF743
:100F1000ABFA01004FF0000304D084F85030EBE747
:100F20000220EAE7606D40F60162904340F4807071
:100F30006065254A2068254E904201D1374600E081
:100F40000746874200D01DB9676D27F48017676593
:100F5000676DFF0404D5A76D27F00607A76500E0BD
:100F6000A3651C27076084F850302068904201D1A7
:100F7000334600E00346834215D0A5B1052D12D0BB
:100F8000092D10D0636D43F480136365904200D146
:100F90003046C0688001AFD5606D20F4005040F449
:100FA00080506065A8E7C268920105D5626D22F4A1
:100FB000005242F4805262658268054B1A40121D4D
:100FC000826099E7000304500001045000000450BF
:100FD000C0FFFF7F10B590F825100022022905D030
:100FE0000421C16380F82420012010BD01680B6832
:100FF00023F00E030B6001680B6823F001030B6004
:1010000090F84410046C01F01C03012101FA03F371
:10101000636080F8251080F82420104610BD000081
:1010200070B5044600F044F90546601C02D004483F
:101030000078044400F03CF9401BA042FAD370BD94
:1010400028000020B0F5007F08D105480178491C30
:10105000C9B20170042901D100210170704700005C
:1010600018000020044910B50A68024202D0086046
:10107000FFF7E8FF10BD0000140401402DE9F04F18
:10108000DFF8EC9100220127A9F1040B85B00325BC
:101090004FF00F0C09F1040AABF1040EE0E000BFC1
:1010A00007FA02F416EA04037ED00E7906F003066E
:1010B000012E01D0022E1FD186680096560005FA37
:1010C00006F80496009E26EA08060096D1F80C80E1
:1010D000049E08FA06F8009E48EA0608C0F8088050
:1010E000466891F80480A643C8F3001808FA02F88D
:1010F00048EA0608C0F80480D1F804806FEA0806C0
:10110000B6070AD1C66AA643C8F3C0049440344364
:10111000C4620C79E443A4070AD0C4684FEA4208C9
:1011200005FA08F6B4438E6806FA08F62643C66048
:101130000C7904F00304022C11D1D40800EB8406CE
:101140000296D6F820805407E60E0CFA06F428EA38
:1011500004080C69B440029E44EA0804346204683E
:101160005600029605FA06F6B4430E7906F0030817
:10117000029E08FA06F848EA0408C0F800804C68A5
:1011800014F4403F6BD03B4C266E46F001062666B9
:10119000246E22F0030604F001040094364C34441B
:1011A0000294A468960700E059E04FEA16780CFA1A
:1011B00008F6B443B0F1904F04D0304EB04203D1A2
:1011C00001261BE0002619E02D4EB04201D1022677
:1011D00014E02C4EB04201D103260FE02A4EB0425B
:1011E00001D104260AE0294EB04201D1052605E0CE
:1011F000274EB04201D1062600E0072606FA08F67F
:101200002643029CA660D9F800404E46D1F80480DF
:101210009C435FEAC82800D51C433460DAF80040DC
:101220005646D1F804809C435FEA882800D51C43C9
:101230003460DBF800405E46D1F804809C435FEAEE
:10124000883800D51C433460DEF800407646D1F87B
:1012500004809C435FEAC83800D51C433460521CAC
:101260000B681E46D3407FF41BAF05B000F012B8E8
:101270000804014000100240000001400004004842
:1012800000080048000C0048001000480014004806
:101290000018004830BCBDE8C08F0069084000D08D
:1012A000012070470AB18161704781627047000078
:1012B00001488068704700002800002090F8412015
:1012C000202A24D190F84020012A20D0012280F841
:1012D0004020242280F841200268136823F0010393
:1012E00013600268136823F4805313600268136864
:1012F0000B43136001680A6842F001020A60202172
:1013000080F84110002180F8401008467047022004
:10131000704790F84120202A22D190F84020012ADD
:101320001ED0012280F84020242280F8412002684B
:10133000136823F0010313600268136823F47063D9
:1013400043EA0121116001680A6842F001020A6063
:10135000202180F84110002180F840100846704795
:101360000220704770B5040004D094F841000025B5
:1013700010B106E0012070BD84F84050204600F016
:101380008FF9242084F841002068016821F00101D0
:1013900001606068216820F07060086120688168E1
:1013A00021F400418160E0680128A06830D040F459
:1013B000044021688860E0680228206841682AD0DB
:1013C00021F40061416020684168144A1143416082
:1013D0002068C16821F40041C160D4E904010843D8
:1013E000A16940EA01202168C860D4E907010843E7
:1013F000216808602068016841F0010101606564AE
:10140000202084F84100256384F84250002070BDFC
:1014100040F40040CDE741F40061D3E700800002D2
:101420002DE9F84F044690F84100DDF828A01F464A
:1014300090468B4620287ED194F8400001287AD02F
:10144000012084F84000FFF733FF06460122009098
:101450001923D103204601F037FDE0BB222084F898
:101460004100102084F8420000256564C4F82480FF
:1014700067856563618D3148FF274FF080784FF0B5
:101480000079FF2903D927853A46009039E0618D1C
:10149000218500903AE05946204601F0E1FC13E036
:1014A00001F048FDB8B92068406A616A0870606A56
:1014B000401C6062208D401E80B22085618D491ED7
:1014C0006185618D01B168B1608D32460028514659
:1014D0002046E5D100E002E001F080FDD0B101201E
:1014E00000F030B85346002280212046009601F0DB
:1014F000EBFC0028F3D1608DFF2804D927853A46FC
:1015000000954346C7E7608D2085009594F8282014
:101510004B46C0E721682020C86121684A68084B13
:101520001A404A6084F8410084F8425084F84050E0
:101530000020D5E7FFE70220D2E70000002400806A
:1015400000E800FE18BCBDE8E08F00002DE9FF4F69
:1015500081B0044690F84100DDF838B01F4690464F
:1015600020287BD194F84000012877D0012084F80E
:101570004000FFF79DFE0646012200901923D1038B
:10158000204601F0A1FC002853D1212084F841001D
:10159000102084F8420000256564C4F82480678523
:1015A0006563608D3A49FF274FF080794FF0007AEC
:1015B000FF2802D927854B4605E0608D2085000471
:1015C0005346000C10D0226898F800009062606AC0
:1015D000401C6062608D401E6085208D401E20850D
:1015E000401CC2B2009101E0002200912046029905
:1015F00001F036FC14E000BF01F01BFDC8B9606AC1
:10160000216800788862606A401C6062608D401EBC
:101610006085208D401E80B22085618D01B160B152
:10162000608D3246002859462046E5D101F0D6FCAF
:10163000E0B1012005B000F02FB85B460022802108
:101640002046009601F040FC0028F2D1608DFF2872
:1016500005D927853A464B460095C7E716E0608DC9
:101660002085009594F828205346BFE72168202064
:10167000C86121684A68074B1A404A6084F84100F3
:1016800084F8425084F840500020D3E70220D1E78C
:101690000020008000E800FE30BCBDE8C08F0000E4
:1016A0002DE9F043A9B00446142122A8FEF700FE5C
:1016B00088216846FEF7FCFD2C4920682C4C122638
:1016C0000327DFF8B09000254FF00408884222D1AC
:1016D000402014950090684600F012FB08B1FEF718
:1016E0009CFFE06C40F00200E064E06C24AA00F093
:1016F00002002790C020CDE9220682E8A00122A99D
:101700004846FFF7BBFCA06D40F40010A065A06D3B
:1017100000F4001025E01849884223D18020009071
:101720001595684600F0ECFA08B1FEF776FFE06C1C
:1017300040F00200E064E06C24AA00F00200279070
:101740004FF4C040CDE9220682E8A00122A9484614
:10175000FFF794FCA06D40F48000A065A06D00F43C
:101760008000279029B0BDE8F083000000540040BD
:101770000010024000040048005800400248816800
:1017800002781144816070472800002010B50024C1
:10179000032000F071F80F2000F008F808B10124D0
:1017A00001E000F025F8204610BD000070B50E4E97
:1017B00005460024307898B14FF47A71B1FBF0F00F
:1017C0000A490968B1FBF0F001F016F840B9102D94
:1017D00006D200222946501E00F02EF8756000E067
:1017E0000124204670BD00002800002034000020A5
:1017F000094808B5016E41F001010166016E01F072
:1018000001010091816D41F080518165806D00F092
:101810008050009008BD000000100240002809DB45
:1018200000F01F02012191404009800000F1E020FA
:10183000C0F8001170470000F0B40E4B1B680C4656
:10184000C3F30223C3F10705042D00D90425191D94
:10185000072901D2002300E0DB1E012606FA05F16C
:10186000491E214099409E40761E16403143F0BCEF
:1018700002F04DBD0CED00E0064900F007020868DB
:101880004FF6FF03184040EA0220034A1043086065
:10189000704700000CED00E00000FA051649B0F5B5
:1018A000007F0868C0F3412009D0022805D00868ED
:1018B00020F4C06040F48060086000207047012878
:1018C000FBD0086820F4C06040F4007008600B484A
:1018D0003222006850430A4AB0FBF2F0401C00E09C
:1018E000401E4A69520501D50028F9D148694005D2
:1018F000E3D5032070470000007000403400002052
:1019000040420F000248006800F4C06070470000C9
:10191000007000400248016841F480710160704726
:1019200000700040F8B504460025FFF7C1FC0646EC
:1019300094F8390080073BD5002084F838002068EF
:10194000016849070CD5016821F004010160606B52
:10195000FFF740FB050003D0E06B40F00400E063BC
:10196000206881684FF0010789061FD5016841F0A2
:1019700002010160206C00903346012202212046C2
:1019800002F09AF8050013D121680220C860206C8B
:101990000090334600222021204602F08DF80500F9
:1019A00006D12068416921F04061416184F83970B5
:1019B0002846F8BD2DE9F84F17468B460446FFF739
:1019C00077FC824694F8380001280ED0012684F86E
:1019D000386094F839004FF00008012807D002253C
:1019E00084F83880284600F028B80220FBE7C4F8C5
:1019F0003C804FF0020984F83990534600222021A0
:101A00002046009702F058F80500E9D10022594617
:101A1000204601F062FFDBF8240058B9534601224A
:101A200002212046009702F047F80500D8D121682E
:101A3000C1F80C9084F83960D2E718BCBDE8E08F9B
:101A4000F8B50446FFF734FC064624B194F8390093
:101A5000002510B109E00120F8BD84F83850204677
:101A600000F03EF841F28830206420680168A268E6
:101A70006FF0FF0321F4706103EB02221143016058
:101A8000206C0090334600222021204602F014F8FA
:101A9000F0B921680A68104B1A40237942EA0362C0
:101AA000E3681A430A60D4E90512114322685368B7
:101AB0000A4E3340268A43EA06431943516021689F
:101AC0000A6842F001020A60E563012184F83910D6
:101AD00084F83850F8BD0000EFFFFF00FEF8E0FF8B
:101AE000F0B587B0044614216846FEF7E1FB1949BA
:101AF000206888422CD11848016D41F4807101653D
:101B0000016D01F480710591C16C41F00101C16466
:101B1000C16C01F001010591C16C41F00201C16489
:101B2000C06C022400F002000590C02000250326AE
:101B30000A278DE8F10069464FF09040FFF79EFAC2
:101B400040F603408DE8F10069460448FFF796FA35
:101B500007B0F0BD001000A00010024000040048D3
:101B60002DE9F84F15460F460446FFF7A1FB8246C4
:101B70002068816994F8382000F12009012A0DD0ED
:101B8000012684F8386094F839204FF00008012AC3
:101B900006D0022084F8388000F044B80220FBE729
:101BA000C4F83C80BFB3222284F839200269521C59
:101BB00022630269521CE262A762426922F040621B
:101BC00042F080624261206881610EE00621204679
:101BD00001F072FFE0B999F80000A16A0870A06AEC
:101BE000401CA062206B401E2063206B53464FF0C8
:101BF000010200950028E9D14FF00201204601F0D2
:101C00005BFF28B921680220C8602046FFF78AFEE2
:101C100084F83960BEE7FFE7E06B40F00800E0635E
:101C20000120B7E718BCBDE8E08F00002DE9F84FB0
:101C300015460F460446FFF73BFB8246206894F8A2
:101C4000381000F1200901290ED0012684F83860EF
:101C500094F839104FF00008012907D05FF0020016
:101C600084F8388000F040B80220FBE7C4F83C80DC
:101C70009FB3122184F839100169491C616201691E
:101C8000491C2162E761416921F0406141610EE038
:101C90000421204601F010FFE0B9E069017889F8DD
:101CA0000010E069401CE061606A401E6062606A8A
:101CB00053464FF0010200950028E9D14FF0020190
:101CC000204601F0F9FE28B921680220C8602046AC
:101CD000FFF728FE84F83960C2E7FFE7E06B40F0C9
:101CE0000800E0630120BBE718BCBDE8E08F0000FE
:101CF0000248016841F00401016070470010024091
:101D00002DE9F84F044600270088E54D3E460105C1
:101D100004F1200B1DD5606E78B1B0F5800F11D0A5
:101D2000B0F5000F04D0B0F5400F22D001270FE02E
:101D3000E86840F48030E8601BE00021201D01F0DD
:101D4000DFFE03E00021584601F070FF070010D0CD
:101D50003E462088C00426D5A06EC0B1B0F1807F79
:101D60001AD0B0F1007F0DD0B0F1407F19D001271B
:101D700018E0D5F88800616E20F440000843C5F8EB
:101D80008800E6E7E86840F48030E86009E0002178
:101D9000201D01F0B5FE03E00021584601F046FF8A
:101DA0000746F7B13E46206880033AD5A86D4FF04C
:101DB0000008C00009D4A86D40F08050A865A86D47
:101DC0004FF0010800F080500090DFF8D8A2DAF858
:101DD000001041F48071CAF80010FFF769FA8146DB
:101DE00010E0D5F88800A16E20F040700843C5F8D7
:101DF0008800D8E7FFF75CFAA0EB0900022801D9B8
:101E0000032705E0DAF80000C005F3D5002F7CD0E9
:101E10004FEA0706B8F1000F03D0A86D20F08050FC
:101E2000A8652078C00707D0D5F88800A16B20F0FE
:101E300003000843C5F888002078800707D5D5F847
:101E40008800E16B20F00C000843C5F8880020787A
:101E5000400707D5D5F88800216C20F030000843F2
:101E6000C5F888002078000707D5D5F88800616C90
:101E700020F0C0000843C5F888002078C00607D5C8
:101E8000D5F88800A16C20F440700843C5F888009C
:101E90002078800607D5D5F88800E16C20F44060F2
:101EA0000843C5F888002088800507D5D5F8880044
:101EB000E16D20F440200843C5F8880020884005E3
:101EC00007D5D5F88800216E20F440100843C5F8E6
:101ED00088002078400607D5D5F88800216D20F4C9
:101EE00040500843C5F888002078000607D5D5F88B
:101EF0008800616D20F440400843C5F888002088C0
:101F0000C00509D5D5F8880000E01CE0A16D20F4DB
:101F100040300843C5F8880020884FF000678004EF
:101F20004FF080684FD5D5F88800E16E20F0406012
:101F30000843C5F88800E06EB8423CD1E86840F438
:101F40008010E8603FE0D5F8900010F4407015D0A4
:101F5000D4F88410814211D0D5F89000D5F89010B3
:101F600020F4407041F48031C5F89010D5F89010FD
:101F700021F48031C5F89010C5F89000C00710D04A
:101F8000FFF796F9074641F2883906E0FFF790F926
:101F9000C11B494501D903263CE7D5F890008007CD
:101FA000F4D5D5F89000D4F8841020F4407008439C
:101FB000C5F890002EE7404505D10121201D01F014
:101FC0009FFD00B106462068000317D5D5F88800AC
:101FD000216F20F040600843C5F88800206FB842A8
:101FE00004D1E86840F48010E86007E0404505D17E
:101FF0000121201D01F084FD00B106462068400348
:1020000017D5D5F88800616F20F040600843C5F807
:102010008800606FB84204D1E86840F48010E8603E
:1020200007E0404505D10121201D01F069FD00B107
:102030000646208840041AD5D5F88800A16F20F004
:1020400040500843C5F88800A06FB0F1805F03D00E
:10205000B0F1005F05D00AE00221201D01F050FD23
:1020600003E00221584601F0E1FD00B10646208858
:10207000000407D5D5F88800E16F20F080400843C0
:10208000C5F888002068C00307D555F8880FD4F834
:10209000801020F0004008432860304600F004B86B
:1020A000001002400070004018BCBDE8E08F000046
:1020B0002DE9F0470F4605006BD0494E306800F01F
:1020C0000700B84209D2306820F00700384330607A
:1020D000306800F00700B8425BD12878414C800797
:1020E0000AD5A868A16801F0F001884204D9A16866
:1020F00021F0F0010143A1602878C0072CD0686866
:10210000032811D0022812D0216898B1490500296E
:102110003FDAA16821F003010143A160FFF7C8F88D
:10212000804641F2883910E021688901EFE7216893
:102130008903ECE78907EAE7FFF7BAF8A0EB0801A3
:10214000494502D90320BDE8F087A068696800F01E
:102150000C00B0EB810FEFD1287880070AD5A86872
:10216000A16801F0F001884204D2A16821F0F001D9
:102170000143A160306800F00700B8420BD9306815
:1021800020F0070038433060306800F00700B842A4
:1021900001D00120D7E72878400705D5A068E96875
:1021A00020F4E0600843A0602878000706D5A06806
:1021B000296920F4605040EAC100A06000F03EF8B8
:1021C000A168094AC1F30311515C01F01F01C84025
:1021D0000649086006480068BDE8F047FFF7E6BA20
:1021E00000200240001002409870000834000020D7
:1021F0002C0000200548064900688968054AC1F39B
:102200000221515C01F01F01C840704734000020DA
:1022100000100240D8700008054806490068896827
:10222000054AC1F3C221515C01F01F01C84070474B
:102230003400002000100240D870000870B5254915
:10224000002318468A68CC6812F00C0204F00306DA
:10225000214C4FEA640509D00C2A05D0042A32D05B
:10226000082A00D1284670BD012E10D10B681B072B
:1022700004D4D1F89430C3F3032302E00B68C3F312
:102280000313164E56F82330DAB10C2AEBD1C86886
:1022900000F00300022818D0032818D01846CA6896
:1022A000CB68C2F30212C3F306234343521CB3FBB1
:1022B000F2F2C868C0F34160401C4000B2FBF0F08D
:1022C00070BD184670BD204670BD2046E7E7284621
:1022D000E5E70000001002400024F400A8700008A8
:1022E0002DE9F84304006FD0FD4DA86800F00C06FE
:1022F000E86800F003072078C00664D576B10C2E9C
:1023000001D1012F0AD0A069002828687AD040F0B6
:1023100001002860FEF7CCFF80465DE0286880075A
:1023200002D5A0690028DED0216A2868000703D5FD
:10233000286800F0F00004E0D5F89400F02202EAEA
:102340001010814216D9084601F0F4FC00283BD158
:10235000286840F0080028602868216A20F0F00012
:10236000084328606868E16920F47F4040EA012062
:10237000686016E0286840F0080028602868216A34
:1023800020F0F000084328606868E16920F47F408D
:1023900040EA0120686026B9206A01F0CBFC0028E1
:1023A000D5D1FFF74BFFA968CE4AC1F30311515CA9
:1023B00001F01F01C840CC490860CC480068FFF715
:1023C000F5F900287ED12EE0CAE000BFFEF770FFCD
:1023D000A0EB0800022876D828688007F6D5286880
:1023E00040F0080028602868216A20F0F0000843C7
:1023F00028606868E16920F47F4040EA0120686055
:1024000011E0FFE720F001002860FEF751FF804651
:1024100006E000BFFEF74CFFA0EB08000228DAD868
:1024200028688007F6D42078C00740D0082E18D03E
:102430000C2E01D1032F14D06068B0F5803F17D067
:10244000B0F5A02F286817D020F4803028602868C5
:1024500020F4802028606068E0B1FEF729FF804604
:1024600014E02868800322D56068002878D01EE038
:10247000286840F48030EDE740F480202860F7E7DA
:10248000FEF716FFA0EB08006428A4D82868800394
:10249000F6D50CE0FEF70CFF804605E0FEF708FFDE
:1024A000A0EB0800642896D828688003F6D420782A
:1024B00080073BD5042E11D00C2E01D1022F0DD058
:1024C000E06801E086E1D6E0002828681ED040F4EC
:1024D00080702860FEF7ECFE07460CE02868400597
:1024E0000CD5E0680028C1D008E000BFFEF7E0FE90
:1024F000C01B022893D828684005F7D56868217C5E
:1025000020F0F85040EA016068600FE020F480702D
:102510002860FEF7CDFE074605E000BFFEF7C8FEC7
:10252000C01B0228B1D828684005F7D420780007DE
:1025300029D560690028D5F8940012D040F0010038
:10254000C5F89400FEF7B4FE074604E0FEF7B0FEBF
:10255000C01B022899D8D5F894008007F6D512E060
:1025600000E120F00100C5F89400FEF7A1FE074647
:1025700005E000BFFEF79CFEC01B02287BD8D5F803
:1025800094008007F6D42078400766D5A86D002710
:10259000C00008D4A86D40F08050A865A86D012740
:1025A00000F08050009052480168C90512D40168BB
:1025B000814641F480710160FEF77AFE804605E0B5
:1025C000FEF776FEA0EB0800022854D8D9F80000E8
:1025D000C005F5D5A068012816D00528D5F89000CB
:1025E00017D020F00100C5F89000D5F8900020F039
:1025F000040000BFC5F89000A06841F28839C0B15E
:10260000FEF756FE80460FE0D5F8900040F001003E
:10261000F0E740F00400C5F89000F5E7FEF748FE4B
:10262000A0EB0801494526D8D5F890008007F5D5DC
:102630000EE0FEF73DFE804606E000BFFEF738FEE6
:10264000A0EB0801494516D8D5F890008007F5D4CD
:102650001FB1A86D20F08050A865A06AF0B30228D1
:102660000AD00C2E7ED0286820F080702860FEF7FB
:102670001FFE0446B0E0ACE0E868E26A00F0030147
:10268000914229D1216B00F0700209011039914269
:1026900022D1626B00F4FE41B1EB022F1CD1A26B80
:1026A00000F40031072A01D0012200E0002291420B
:1026B00012D1A18F00F4C00249084905A1F500110B
:1026C000914209D194F8401000F0C06049084906D1
:1026D000A1F1007181425ED00C2E0BE072E000008F
:1026E0000010024098700008340000202C000020E8
:1026F0000070004079D02868400176D42868C00076
:1027000073D4286820F080702860FEF7D1FD06465B
:1027100005E000BFFEF7CCFD801B022859D82868D1
:102720008001F7D4D4E90B016FF00F0202EB011125
:102730000843A18F5204490802EB4151626B41EA00
:102740000221084394F840104FF07E42490802EB02
:1027500041610843A16B090940EA4140E968244A04
:10276000114000E041E00843E860286840F08070D4
:102770002860E86840F08070E860FEF799FD044644
:1027800005E000BFFEF794FD001B022821D8286851
:102790008001F7D527E02868800124D4286840F01C
:1027A00080702860E86840F08070E860FEF780FD87
:1027B000044604E0FEF77CFD001B022809D82868C7
:1027C0008001F7D50FE000BFFEF772FD001B022865
:1027D00002D90320BDE8F88328688001F4D4E868B2
:1027E00004490840E8600020F4E70120F2E7000017
:1027F0008C809DF9FCFFEEFE10B5401EB0F1807F8D
:1028000001D3012010BD4FF0E02460610F2160175B
:1028100001F07DFD0020A06107202061002010BD97
:102820007047704770470000F0B590F83C20012ACF
:1028300039D0012480F83C40022280F83D20026813
:1028400053689568194E1A4FB24201D0BA4204D16A
:1028500023F4700C4B6843EA0C0323F0700C0B68F4
:1028600043EA0C0353600268B24210D0B2F1804FC9
:102870000DD0104B9A420AD00F4B9A4207D00F4B03
:102880009A4204D0BA4202D00D4B9A4204D18968D0
:1028900025F080031943916080F83D40002180F8C5
:1028A0003C100846F0BD0220F0BD0000002C0140A5
:1028B000003401400004004000080040000C0040CB
:1028C0000040014010B5040003D094F83D0010B161
:1028D00007E0012010BD002084F83C00204600F0F5
:1028E00023F8022084F83D00211D206801F018FB28
:1028F000012084F8480084F83E0084F83F0084F802
:10290000400084F8410084F8420084F8430084F8D1
:10291000440084F8450084F8460084F8470084F8B1
:102920003D00002010BD000008B5274A0168274877
:1029300091420ED1816D41F010018165806D0022C0
:1029400000F01000009011463620FEF775FF36208B
:1029500034E01F4A91420ED1816D41F02001816522
:10296000806D002200F02000009011463720FEF715
:1029700063FF372022E0174A91420ED1016E41F4E5
:1029800000310166006E002200F400300090114614
:102990001920FEF751FF192010E00F4A914211D182
:1029A000016E41F480210166006E002200F4802057
:1029B000009011461A20FEF73FFF1A20BDE808409C
:1029C000FEF72CBF08BD00000010004000100240C0
:1029D00000140040004401400048014070472DE9C8
:1029E000F04104460068C66805694FF00007A90772
:1029F00013D5B10711D5F91E016101202077206898
:102A000080698007204602D0FFF7E8FF04E000F06D
:102A100089F8204600F087F82777680716D57007F1
:102A200014D521686FF00400086102202077206827
:102A3000806910F4407F204602D0FFF7CFFF04E00A
:102A400000F070F8204600F06EF82777280715D5BB
:102A5000300713D521686FF0080008610420207743
:102A60002068C0698007204602D0FFF7B7FF04E066
:102A700000F058F8204600F056F82777E80616D5FB
:102A8000F00614D521686FF0100008610820207747
:102A90002068C06910F4407F204602D0FFF79EFFF7
:102AA00004E000F03FF8204600F03DF82777E80703
:102AB00008D0F00706D021686FF0010008612046B9
:102AC00000F032F8280608D5300606D521686FF0E8
:102AD000800008612046FFF7A4FEE80508D530060F
:102AE00006D521686FF4807008612046FFF798FED4
:102AF000680608D5700606D521686FF040000861A9
:102B0000204600F01DF8A8060AD5B00608D52168B1
:102B10006FF0200008612046BDE8F041FFF782BE5B
:102B2000BDE8F081704770470349884203D10348EC
:102B30000168491C01607047880100200C000020DA
:102B400070472DE9F843040004D094F849000025AB
:102B500018B107E00120BDE8F88384F8485020460A
:102B600000F048F8022084F849002068016821F04C
:102B700001010160204601F033FA0128EBD0206802
:102B8000416821F4804141602068816821F02A0178
:102B900081602068016841F001010160E564FEF791
:102BA00087FB8046206800684FF0030700074FF45A
:102BB0007A760AD5434600224FF40011204600964B
:102BC00001F094FA08B13846C5E72068006840076C
:102BD00009D5434600224FF480012046009601F0BB
:102BE00085FA0028EFD1012084F8490084F8485084
:102BF0002846B0E710B5A8B00446142122A8FDF776
:102C000057FB88216846FDF753FB17492068884227
:102C100028D104200024009010946846FFF770F833
:102C200008B1FDF7FAFC1148816D41F480218165FE
:102C3000816D01F480212791C16C41F00401C164D0
:102C4000C06C22A900F00400279041F230002290CD
:102C50000220CDE923040320259007202690044874
:102C6000FEF70CFA28B010BD0048004000100240EA
:102C700000080048FEE701688A69D243920701D440
:102C800000228A6200688169C943C90703D081694B
:102C900041F00101816170472DE9F0470446006869
:102CA00089460026816935461746C9064FF0200837
:102CB00041D51021C1612FE0B9F1FF3F2CD0FEF7C3
:102CC000F7FAC11B494502D8B9F1000F24D1206899
:102CD000416894F8422001F480418369DB431B047E
:102CE00015D4B1F5804F12D0202A10D0416841F49C
:102CF00080414160FEF7DCFA074608E0FEF7D8FAAB
:102D0000C01B192803D945F02005012604E02068DE
:102D10008069C0438006F1D420688069C043800682
:102D200002D5002EC8D003E016B92168C1F81C8076
:102D300045F00405012621688869C20505D54FF4D0
:102D4000807245F00105CA610126410509D5226856
:102D50004FF4806145F00805D1610126800502D459
:102D60000AE0800507D521684FF4007045F00205A0
:102D7000C861012600E086B12046FFF77CFF54F8C9
:102D8000240B4168064A11404160206A28432062B2
:102D900084F81D800020A07720773046BDE8F087BA
:102DA00000E800FE77B54FF0FF35064683B00C46CD
:102DB000280C00EA4401012305AA30460095FEF7DD
:102DC000C5FB50B9012000EB440081B2012301AAE8
:102DD00030460095FEF724FB10B1002006B070BD10
:102DE0009DF80400FAE7000070B501220E4D540270
:102DF00021462846FEF756FA012216023146284699
:102E0000FEF750FA00F042F9002221462846FEF76C
:102E100049FA00F03BF9002231462846FEF742FA13
:102E2000BDE8704000F032B90004004870B50B4DA9
:102E30004FF40074002221462846FEF733FA01229F
:102E400011022846FEF72EFA00F020F92146284606
:102E5000BDE870400122FEF725BA000000040048DA
:102E600010B5C1F3090141EA02410268029C19430D
:102E70002143506821F000414FF4806303EA54532A
:102E8000024C234398430843506010BDFF63FF0387
:102E900070B50C4C012251022046FEF703FA00F0F7
:102EA000F5F80122150229462046FEF7FBF900F04D
:102EB000EDF8002229462046FEF7F4F9BDE87040FF
:102EC00000F0E4B8000400482DE9F0411E46174622
:102ED0000D460446DDF8188020E0701C1ED0FEF779
:102EE000E7F9A0EB0800B04200D8BEB920688069BD
:102EF00035EA000010D00020B8420FD154F8440F3A
:102F000040F0200044F80409202060700020A070E8
:102F100020700120BDE8F0810120EDE72068806984
:102F200035EA000004D00020B842D6D00020F1E7F6
:102F30000120F9E72DE9F041202690460F4604468E
:102F4000002541E0424639462046FFF7A5FE10BB6A
:102F500020688069C04380061ED420688169C94307
:102F6000490701D4218D71BB8169C943C90604D4C5
:102F70001021C1610420606400E065642068C661BE
:102F800020684168144A1140416084F8416084F827
:102F9000425084F8405013E0FEF78AF9A0EB080095
:102FA000B84200D887B920688069C04340070BD574
:102FB00054F8440F40F0200044F80409667025706E
:102FC0000120BDE8F08104E020688069C04340072B
:102FD000B8D40020F5E7000000E800FE70B5164602
:102FE0000D4604461EE0324629462046FFF754FEB1
:102FF00008B1012070BDFEF75BF9801BA84200D824
:1030000085B920688069C04380060BD554F8440F09
:1030100040F0200044F80409202060700020A070D7
:103020002070E6E720688069C0438006DBD400207A
:1030300070BD70B516460D46044620E0324629465E
:103040002046FFF729FE08B1012070BD681C16D08C
:10305000FEF72EF9801BA84200D885B92068806948
:10306000C04380070BD554F8440F40F0200044F8CB
:103070000409202060700020A0702070E4E7206820
:103080008069C0438007D9D4002070BD0320401E52
:10309000C0B2FCD27047000070B5094D4FF4007407
:1030A00021462846FEF7F9F838B121462846FEF7B2
:1030B000F4F8012800D1002070BD012070BD00008F
:1030C0000008004800EB8100006E00F0F8407047F7
:1030D0008068C0F3C00070478068C0F3800070470C
:1030E0008068C0F380007047C06810F4406F01D062
:1030F0000020704701207047042303EAD15310B524
:1031000018444369C1F3045107248C40A3438A4007
:103110001343436110BD00EB8100016E21F00041BB
:103120001143016670470000FEB5054600F06CF8DB
:10313000064658208DF808004FF0FF34012302AAFC
:10314000762128460094FEF701FA0A20FDF768FF71
:10315000032301AA762128460094FEF761F99DF821
:1031600004009DF80510000440EA01209DF80610B7
:103170004FF4806208432D21A0F5000080FB01017F
:103180000023FDF771F84FF04074041941F1000578
:103190004FF040528218A6FB0207002303FB027285
:1031A00041F1000106FB01214FF40012FDF75CF82C
:1031B000031B61EB050142F21074A3FB040501FB44
:1031C0000451002203FB02114FF400420023FDF7DB
:1031D0004BF800EE100A9FED031AF8EEC00A80EEDD
:1031E000810AFEBD0000C8421CB51E218DF80410E6
:1031F0004FF0FF310091012301AA7621FEF7A6F9D5
:103200000A20FDF70DFF1CBD3EB5054648208DF890
:1032100008004FF0FF34012302AA762128460094CB
:10322000FEF794F90A20FDF7FBFE032301AA76219D
:1032300028460094FEF7F4F89DF804009DF8051068
:10324000000440EA01209DF8061008433EBD00003E
:1032500030B589B000240694079418216846089474
:10326000FDF726F81B481A490425C0E900148460BC
:10327000C460C0E90445047601214176C16180F84B
:1032800020408462C46280F83040446380F8384053
:10329000FDF77EFC08B1FDF7C0F906A90D480694BC
:1032A000FDF7F6F908B1FDF7B8F90B4800900620D4
:1032B000CDE901047F200594CDE903056946054861
:1032C000FDF764FA002801D0FDF7A7F909B030BD79
:1032D00000000450380000204000201930B587B0AD
:1032E00014216846FCF7E4FF1F48C16C41F004015B
:1032F000C164C16C01F004010591C16C41F0010190
:10330000C164C16C01F001010591C16C41F0020181
:10331000C164C06C154D00F0020005900022102120
:103320002846FDF7BFFFE81300904FF488100024F3
:10333000CDE9010469462846FDF7A0FE4FF4007070
:10334000CDE900040220029069460948FDF796FE87
:1033500001211020CDE90214CDE90001694628467B
:10336000FDF78CFE07B030BD00100240000400489D
:1033700000080048134810B5114901601249416026
:1033800000210122C0E90212016141618161C16134
:103390000162FDF7E7FF08B1FDF73FF90021094899
:1033A000FDF78CFF08B1FDF738F900210548FDF75E
:1033B000B0FF002803D0BDE81040FDF72EB910BDC6
:1033C000005400409C000020FFEAC000134810B5E4
:1033D000114901601249416000210122C0E9021235
:1033E000016141618161C1610162FDF7BBFF08B10B
:1033F000FDF713F900210948FDF760FF08B1FDF75B
:103400000CF900210548FDF784FF002803D0BDE832
:103410001040FDF702B910BD00580040F000002038
:10342000FFEAC0000C4810B50A49016000210422DF
:10343000C0E901121022C2606FF07F4202614FF4B6
:103440004072C0E90521FEF7FBFA08B1002010BD6B
:10345000012010BD001000A0440100200C4810B550
:103460000A49016000214FF6FF724160C0E9021273
:103470000161416180218161FFF724FA002803D0B6
:10348000BDE81040FDF7C9B810BD00000044014080
:10349000200200200C4810B50A49016000214FF6B7
:1034A000FF724160C0E902120161416180218161C6
:1034B000FFF708FA002803D0BDE81040FDF7ADB8CB
:1034C00010BD0000004801406C0200203EB5002401
:1034D0000F48009401940D49029401604CF24F3161
:1034E000C0E901144EF66021C0E90314FFF7EAF9C0
:1034F00008B1FDF792F80094694605480294FFF779
:1035000093F9002801D0FDF788F83EBD0010004077
:10351000880100203EB500240F48009401940D4915
:103520000294C0E900144FF6FF71C0E90241802106
:103530008161FFF7C7F908B1FDF76FF8009469469C
:1035400005480294FFF770F9002801D0FDF765F8EF
:103550003EBD000000140040D40100200D4810B50D
:103560000B4901604FF4E1314160002181600C2280
:10357000C160C0E904128161C1610162FFF7E1FA33
:10358000002803D0BDE81040FDF747B810BD00008B
:1035900000480040B8020020FEE7FEE730B40021FA
:1035A000084B0A465FF0000003EB0014401CC0B259
:1035B00062544028F8D3491CC9B21029F2D330BC58
:1035C00000F020B80803002030B5CC0801F0070354
:1035D00001259D40EBB2064D05EB0015C808285C9F
:1035E0000AB1184302E063EA0000C043285530BD29
:1035F000080300200246012000E05043491EC9B2E2
:10360000FBD2704770B5184E002400BF04F1B00023
:10361000C0B2002100F045F90021084600F041F950
:103620000021102000F03DF9FFF7DEFB782000F0CC
:10363000C1FBFFF72DFC402000F0BCFBFFF728FC8E
:103640005FF0000506EB0510005D00F0B3FBFFF72F
:103650001FFC6D1CEDB2402DF4D3FFF7E7FB641C9B
:10366000E4B2102CD2D370BD080300202DE9FC4F2A
:103670001C460E4682468B460190082B0ED06007F2
:1036800000D0012000EBD400610810FB01F0C0B2B3
:103690008146203AD0B2009000204AE00620F7E7A9
:1036A000082C12D00C2C17D0102C1AD0182C43D167
:1036B0000098234900EBC00001EB8001002711F8BE
:1036C0000850E80712D00B9A13E000981D4900EB50
:1036D000400001EB4001F1E700981B4900EB40007E
:1036E000EAE71A49009801EB0011E7E70B9828B3C5
:1036F000002231465046FFF767FF761C7F1C6D089D
:10370000FFB2F6B2082FDCD30AF1010000F0FF0A85
:10371000082C0AD00199AAEB0100B0EB540F04D198
:103720000BF108008A4600F0FF0B08F101005E462D
:10373000C0B280464845B3D300F00AB80122D8E7AA
:10374000925C0008065000082E520008A25600089D
:103750001CBCBDE8E08F00002DE9FF4F81B0814621
:10376000009098460E468B46580701D0012100E094
:10377000002101EBD80111FB08FA002448E000BF4A
:10378000B8F1100F12D0B8F1180F14D0B8F1200F03
:1037900019D0B8F1400F3DD12149039801EB4020E9
:1037A0000027055DE80714D00E9A15E01D4903981F
:1037B00001EB4010F4E70398194900EBC000C83949
:1037C00001EBC000ECE716490398803901EBC0100B
:1037D000E6E70E9808B3002231464846FFF7F4FEAC
:1037E000761C7F1C6D08FFB2F6B2082FDAD309F100
:1037F0000100009900F0FF09A9EB0101414505D145
:103800000BF10800DDF8009000F0FF0B5E46641C31
:103810005445B5D305B000F007B80122DCE700003D
:10382000966E0008EE69000830BCBDE8C08F2DE937
:10383000F84F0025DDE90A691F4692468B4680460F
:10384000082E00D1022500241CE0381B401EC1B206
:103850000A20FFF7CFFEBAFBF0F00A21B0FBF1F22D
:1038600001FB1200CDF8009080B13030C2B205EB00
:10387000560101FB0480C0B233465946FFF7F6FEFD
:10388000641CE4B2BC42E0D300F008B805EB56017A
:1038900001FB0480C0B233463022EEE718BCBDE81D
:1038A000E08F70B50C460546FFF79EFA782000F0D1
:1038B00081FAFFF7EDFA0CB1402000E0002000F0A3
:1038C00079FAFFF7E5FA284600F074FAFFF7E0FA14
:1038D000BDE87040FFF7AABA7047F0B54B6A4FF0E9
:1038E00040652BB1AA4203D08B6A04685B1E23613A
:1038F0008C690B6A002C57D05BB304688B68E3615A
:10390000CC69B4B1D1E90B3633434F6A4E6B3E43B9
:1039100033438E8A43EA86430E6933430E6A334348
:10392000CE68334323438C6924E000684968816191
:10393000F0BDD1E90B3423434D6A4C6B2C43234338
:103940008C8A43EA84430C6923430C6A23438C69C1
:1039500023E0CE69BEB1D1E90B373B43D1F824C097
:103960004F6B47EA0C073B438F8A43EA8743CF6894
:103970003B43334323430C6823430468134363618D
:10398000AA42D2D1F0BDD1E90B352B434E6A4D6B23
:1039900035432B438D8A43EA8543096823430068F6
:1039A0000B4313434361F0BD3BB304688B68E36191
:1039B000CC6994B1D1E90B3633434F6A4E6B3E4329
:1039C00033438E8A43EA86430E6933430E6A334398
:1039D000CE68334323438C69CEE7D1E90B342343CC
:1039E0004D6A4C6B2C4323438C8A43EA84430C6915
:1039F00023430C6A89692343D1E7CC6964B1D1E9D7
:103A00000B3633434F6A4E6B3E4333438E8A43EA51
:103A10008643CE683343AFE74B6A002BC3D0D1E96E
:103A20000B452C434D6B898A1D432C43006844EAA7
:103A3000814111434161F0BD074A10B51268491E2A
:103A40001161014641F288320348FEF789F80028E7
:103A500000D0012010BD00004401002070B58EB0E0
:103A60000DF1480C9CE87000CDE9000103950020A1
:103A700009960D90CDE907400B900C90CDE90523F8
:103A800041F2883269460248FDF794FF0EB070BDDE
:103A900044010020074A10B51268491E1161014611
:103AA00041F288320348FEF7C1F8002800D0012017
:103AB00010BD0000440100202DE9F0419846164653
:103AC0000F460446069D08E0681C06D0FDF7F0FB93
:103AD000A0EB0800A8420AD84DB1206880683840A1
:103AE00000D00120B042EFD10020BDE8F0810420D9
:103AF00084F83900E06B40F00100E0630120F4E756
:103B00002DE9F041444C05468846E06800268107CF
:103B100028680DD0E16801F00301814216D1A8B1F7
:103B2000E0686968C0F30210401C88420ED120E0B2
:103B3000012804D0022805D0032807D108E0216815
:103B4000890701E021684905002907DB01265FE0BC
:103B50002168890302D421684903F5E7E1686A68AE
:103B60006FF00F0321F0730103EB021211430143C5
:103B7000E160206820F080602060FDF799FB074637
:103B800005E000BFFDF794FBC01B022837D8206872
:103B90000001F7D4B8F1000F18D0B8F1010F1ED012
:103BA000287D4FF07E41400801EB4060A96840EA63
:103BB00001202169194A114008432061206840F022
:103BC00080602060FDF774FB07461AE0A868E9688A
:103BD0000002090940EA41402169114AEBE7288ABD
:103BE0001049400801EB4050A96840EA01202169D2
:103BF0000D4AE0E7FDF75CFBC01B022801D9032654
:103C000006E020680001F5D52069A9690843206114
:103C10003046BDE8F081000000100240FF80FFF94F
:103C2000FF80FDFF0000E0FFFF809FFF2DE9F041D6
:103C30003D4C06468846E0680025810730680DD077
:103C4000E16801F00301814216D1A8B1E068716812
:103C5000C0F30210401C88420ED120E0012804D09D
:103C6000022805D0032807D108E02168890701E070
:103C700021684905002907DB012551E021688903F6
:103C800002D421684903F5E7E16872686FF00F0319
:103C900021F0730103EB021211430143E16020683C
:103CA00020F080502060FDF703FB074605E000BFD1
:103CB000FDF7FEFAC01B022829D820688000F7D43F
:103CC000B8F1000F15D0307C4FF07E41400801EB79
:103CD0004060B16840EA01206169144A114008431C
:103CE0006061206840F080502060FDF7E1FA0746EF
:103CF0000FE0B068F1680002090940EA41406169DB
:103D00000B4AEBE7FDF7D4FAC01B022801D90325C3
:103D100006E020688000F5D560697169084360613C
:103D20002846BDE8F081000000100240FF80FFF946
:103D3000FF80FDFFF8B51C4D06460024A86DC000AD
:103D400002D5FDF7DFFD0DE0A86D40F08050A865BD
:103D5000A86D00F080500090FDF7D4FDA96D21F012
:103D60008051A965B0F5007F04D0802E07D94FF0AF
:103D700003040AE0802E08D9A02E01D804E001D166
:103D8000022402E0702E00D101240848016821F0CD
:103D9000070121430160006800F00700A04201D044
:103DA0000120F8BD0020F8BD0010024000200240B4
:103DB000704700002DE9F041124F054600244FF4F2
:103DC00000784FF48076280601D5012200E0002219
:103DD00041463846FDF766FAFFF758F901223146A9
:103DE0003846FDF75FFAFFF751F9002231463846B1
:103DF000FDF758FA6806641C050EE4B2082CE2D3FD
:103E0000BDE8F0810004004808B54FF0FF310246DC
:103E10000091032381210448FDF702FB08B1002033
:103E200008BD012008BD00009C00002003B581B042
:103E30004FF0FF3100910146012302AA0348FDF72C
:103E400085FB08B100200EBD01200EBD9C000020A6
:103E5000FDF794BC10B596B044216846FCF728FAEB
:103E6000142111A8FCF724FA4FF40070FDF716FD99
:103E700008B172B6FEE7FDF74DFD184850F8901FE7
:103E800021F018010160142000900120029000240C
:103E900060210690CDE907410221CDE90A100C907E
:103EA00019200D900720CDE90E0168461091FEF70C
:103EB00017FA08B172B6FEE70F2011900320CDE982
:103EC00012040146149411A81594FEF7F1F808B1F4
:103ED00072B6FEE7FDF70CFF16B010BD00100240F1
:103EE0000248016841F470010160704788ED00E00C
:103EF0000148FEF774BD00006C0200200148FEF787
:103F00006EBD0000200200200148FEF768BD0000E1
:103F1000880100200148FEF762BD0000D4010020A6
:103F20002DE9F0470268264B264D274E274F284C97
:103F30004FF0804A984209D0504507D0A84205D09A
:103F4000B04203D0B84201D0A04204D122F0700C9C
:103F50004A6842EA0C02DFF87CC0DFF87C80DFF8B8
:103F60007C9098420FD050450DD0A8420BD0B04263
:103F700009D0B84207D0A04205D0604503D04045E3
:103F800001D0484503D122F44075CA682A434D69DF
:103F900022F080022A4302608A68C2620A68826252
:103FA000984207D0A04205D0604503D0404501D0DB
:103FB000484501D10969016301214161BDE8F087EC
:103FC000002C01400004004000080040000C0040AC
:103FD00000340140004001400044014000480140DD
:103FE00070B504468068216900250843616941F481
:103FF0000041084321680A68364B1A4002430A60B0
:10400000206A40F40061D4E9060210430843E168E5
:1040100001432068426822F47C520A4342602E4ADF
:1040200020682E494FF6EF7690420ED1D1F88800E5
:1040300010F0030006D001283ED0022839D0032812
:1040400041D13CE0FEF7E8F81FE0254A90420BD151
:10405000D1F8880010F00C0015D004282CD00828C6
:1040600027D00C282FD12AE01E4A90422BD1D1F81C
:10407000880010F0300006D010281DD0202818D05D
:10408000302820D11BE0FEF7B5F84100D4F8040039
:1040900001EB5001B1FBF0F0A0F11001B14212D8D8
:1040A0004FF6F0710140C0F3420001432068C16047
:1040B0000AE00D496068EBE7FEF7C0F8E5E74FF46A
:1040C00080316068E4E701250020A063E0632846B2
:1040D00070BD0000F369FFEF00380140001002409E
:1040E00000440040004800400048E8012DE9F0414C
:1040F000984617460E460446069D08E0681C06D002
:10410000FDF7D6F8A0EB0800A8420BD855B12068FF
:10411000C06936EA00000DD00020B842EED0002081
:10412000BDE8F081012084F84900002084F84800AF
:104130000320F5E70120F0E7FEE73EB5040300F0B9
:10414000A0F800F045F84FF40051C81000228DE8A7
:104150000700831021462020FFF780FCBDE83E4089
:1041600000F036B83EB515464FF080730446DA12BB
:10417000D0108DE80D00831008220B20FFF76EFC95
:1041800003B029462046BDE83040FFF755BC1FB5B7
:1041900000218DF80C10012803D0022803D0032839
:1041A00003D0052002E0352000E015204FF080729A
:1041B0000091CDE90112131400221146FFF74EFCC5
:1041C000012103A8FFF738FC9DF80C0004B010BDD6
:1041D00010B50120FFF7DBFFC007FAD110BD0000CA
:1041E0002DE9F05FC1F30B06DFF88C800F0BC6F5ED
:1041F0008054894682461546A24200D814463903A7
:104200008B464FF480524046FFF7ACFF002006E09B
:10421000321818F80210FF2903D1401C80B2A042C6
:10422000F6D3A04222D23846FFF787FF002006E0EF
:104230001AF800208319401C08F8032080B2A0421D
:10424000F6D359464FF480524FEA080000F026F8A2
:10425000A5420FD0281BA244A144002685B24FF4EA
:1042600080547F1CA542CAD82C46C8E7224649463E
:104270005046EBE700F002B80808002030BCBDE86B
:10428000C09F0EB5002000900190024601460290AA
:104290004FF480730620FFF7E1FB0EBD2DE9F041DE
:1042A0000746C8B2C0F580740E461546A24200D833
:1042B00014464FF4807822463146384600F00DF817
:1042C000A54208D0281B2744264485B24446A5426F
:1042D000F1D82C46EFE7BDE8F081FEB516460C4656
:1042E0000546FFF7CEFF4FF08072D112C8108DE85F
:1042F00007008310002221460220FFF7AFFB314662
:104300002846FFF7C7FBBDE8FE40FFF761BF09077E
:10431000090E002804DB00F1E02080F8001470474B
:1043200000F00F0000F1E02080F8141D704738B550
:10433000012400224023082110460094FFF70CFAC4
:1043400008214023012208460094FFF705FA402384
:104350000222082110200094FFF7FEF940230322D7
:10436000082118200094FFF7F7F9402304220821C0
:1043700020200094FFF7F0F940230522082128208F
:104380000094FFF7E9F94023062208213020009429
:10439000FFF7E2F940230722082138200094FFF7B5
:1043A000DBF938BD70B52DED028B82B0FFF7F6F862
:1043B000012408224023114600200094FFF7CCF985
:1043C00008214023092208460094FFF7C5F940233D
:1043D0000A22082110200094FFF7BEF940230B2287
:1043E000082118200094FFF7B7F940230C22102170
:1043F00000200094FFF7B0F940230D22102108207F
:104400000094FFF7A9F940230E2218210020009400
:10441000FFF7A2F940230F22182108200094FFF78C
:104420009BF940231022202100200094FFF794F9EB
:1044300040231122202108200094FFF78DF919480C
:1044400000F072F91848FEF76FFE1025154ECDE901
:104450000054B0EE408A96ED000A08232946BCEECF
:10446000C00A122010EE102AFFF7E1F9CDE900543E
:1044700096ED010A08231821BCEEC00A122010EEA6
:10448000102AFFF7D4F9BCEEC80ACDE9005408237E
:1044900010EE102A20211220FFF7C9F902B0BDEC5E
:1044A000028B70BD100000209C00002070B52DED27
:1044B000028B82B0FFF772F80124402312220821F8
:1044C00000200094FFF748F90821402313220846F2
:1044D0000094FFF741F94023142208211020009492
:1044E000FFF73AF940231522082118200094FFF71E
:1044F00033F940231622082110200094FFF72CF9ED
:1045000040231722082118200094FFF725F94023A3
:104510001822082120200094FFF71EF940231922B9
:10452000082128200094FFF717F940230C221021BE
:1045300000200094FFF710F940230D2210210820DD
:104540000094FFF709F940230E221821002000945F
:10455000FFF702F940230F22182108200094FFF7EB
:10456000FBF840231022202100200094FFF7F4F8EC
:1045700040231122202108200094FFF7EDF819486C
:1045800000F0D2F81848FEF7CFFD1025154ECDE902
:104590000054B0EE408A96ED000A08232946BCEE8E
:1045A000C00A122010EE102AFFF741F9CDE900549D
:1045B00096ED010A08231821BCEEC00A122010EE65
:1045C000102AFFF734F9BCEEC80ACDE900540823DD
:1045D00010EE102A20211220FFF729F902B0BDECBD
:1045E000028B70BD100000209C0000202DE9FC41D2
:1045F00000273E46FEF7D2FF012440231A2208215D
:1046000000200094FFF7A8F8082140231B22084649
:104610000094FFF7A1F840231C22082110200094E9
:10462000FFF79AF840231D22082118200094FFF775
:1046300093F840231922082110200094FFF78CF8EA
:10464000364A37493748FBF765FF40231C221021C3
:1046500000200094FFF780F840231D22102108203D
:104660000094FFF779F8102140231922084600949E
:10467000FFF772F810252B48CDE900540268082393
:1046800029462420FFF7D3F8DFF89480CDE90054C1
:10469000082310212E20D8F80020FFF7C8F8CDE914
:1046A0000054082310213820D8F80020FFF7BFF865
:1046B00040231C22182100200094FFF74DF84023CE
:1046C0001D22182108200094FFF746F840231E22DF
:1046D000182110200094FFF73FF8182140231922D9
:1046E00008460094FFF738F8CDE9005408233A460D
:1046F00018212220FFF79BF8CDE900540823324609
:1047000018212C20FFF793F8CDE9005408233246F6
:1047100018213620FFF78BF8BDE8FC81240000202B
:10472000200000201C00002008B54FF4FA75284630
:10473000FCF776FCFE218020FFF778FB1C4C284616
:10474000FCF76EFCF3218020FFF770FB90B1642032
:10475000FCF766FC6846FFF757FB9DF801009DF8E3
:10476000001000EB012080B220F00300FBF724FFD3
:1047700084ED000A2846FCF753FCF5218020FFF762
:1047800055FB0028DBD06420FCF74AFC6846FFF7A5
:104790003BFB9DF801009DF8001000EB012080B26A
:1047A00020F00300FBF7F7FE84ED010AC7E70000E5
:1047B000100000202DED028B82B0FCF7E7FFFFF721
:1047C00049FBFEF78BFDFEF743FDFEF7D3FDFEF739
:1047D000FDFDFEF727FEFEF779FEFEF79BFEFEF7D6
:1047E0003DFEFEF757FEFEF7B9FE0020FEF754FC33
:1047F0005048FEF7F9FCDFF840919FED508B514F88
:10480000514CDFF84881002614214846FBF728FF69
:10481000208000F081F953EC182B00F091F900F0A2
:10482000A1F800EE100A10EE100A84ED020AB84258
:104830002FDABCEEC00A10EE100A2080FEF7AEFEA2
:104840001020CDE900060123228814212A20FEF73A
:10485000EEFF2088D4ED020A00EE100AB8EE400AFE
:1048600030EEC00ADFED3A0A20EE200A84ED020A9B
:1048700010EE100A00F04CFB41EC100B8020009071
:1048800010230322D221BE20FEF7D1FFFA20FCF72D
:10489000C7FB45B1012D09D0022D0AD0032DB3D19C
:1048A000FFF7A4FEB0E7FFF742FDADE7FFF77AFDA3
:1048B000AAE7FFF7FBFD2748FFF736FFFFF7E1FC0C
:1048C000042200212448FFF78BFC04224FF44051BE
:1048D0002248FFF785FC04224FF4C0412048FFF72F
:1048E0007FFCD8F800000C288ED1DFF868A0DAF839
:1048F000000000F00DFB41EC100B04214FF41040C0
:10490000FFF76EFCDAF8040000F002FB41EC100B3C
:1049100004214FF43040FFF763FC606800F0F8FAC0
:1049200041EC100B04214FF45040FFF759FCC8F83C
:10493000006069E79C0000200800900C66666666CF
:1049400066664A3F00002040000000200C00002066
:1049500000007A44100000201C00002020000020ED
:104960002400002021F00042A2F16052B2F5801F25
:1049700001F0004328BFD2F17F6C0BD95FEA001C25
:1049800043EAC20242EB507018BF704728BF20F0C4
:1049900001007047B2F5801FBCBF184670474FEA50
:1049A000410C1CF5001F02D2084600F027BB70B571
:1049B00000F070F900000089FFF7F6BF4FF00040EB
:1049C000A0F580007047000010B591EA030F48BFC2
:1049D00083F0004300F1BA81841A71EB030C05D215
:1049E000121943EB0C03001B61EB0C01DFF824E10F
:1049F0004FEA1154A4EB135C1EEA430F18BF9EEA62
:104A0000445F73D023EA0E03DCF1200E21EA045147
:104A100043F4801332D322FA0CFE10EB0E0023FA7B
:104A20000CFE41EB0E01CCF1200E03FA0EFE10EB52
:104A30000E0051F10001B1F5801FCCF1200E32D2F1
:104A400001EB045112FA0EF2BDE8104058BF704756
:104A5000401C38BF5FEA420218BF7047002814BFED
:104A600020F0010041F100014FEA410313F5001F5E
:104A700038BF7047A1F1C04100F05AB9012A43EB99
:104A80000302ACF1200CDCF11F0E32BF4FF0000E20
:104A900023FA0CF310EB030041EB0451B4EB115F6C
:104AA000D0D0A1EB045101F5801149085FEA300034
:104AB00001EB04510ED350F1000038BF12FA0EFE84
:104AC00008D1BDE81040C9E7401C38BF5FEA420288
:104AD000CAD1C3E7BDE810404FEA410313F5001FF8
:104AE00038BF7047A1F1C04100F022B99EEA445F8F
:104AF00008D011EA5E0FBDE8104004BF01F000418C
:104B000000207047BDE8104070B500F0C3F800BF4A
:104B100064FBBE3E0000E0FFB0FA80F310FA03F140
:104B20000AD0C3F11D0303F580634FEA41504FEAF9
:104B3000035202EBD12170474FF000007047000094
:104B4000DFF848C170B51CEA111E1EBF1CEA131520
:104B50009EEA0C0F95EA0C0F00F06F8081EA0304C7
:104B600023EA4C134EEAD47E21EA4C1141F4801121
:104B700043F48013AE44A1FB024CA0FB0365AEF1ED
:104B80007F7E361955EB0C05A1FB034C4CF100035D
:104B9000A0FB021C16EB0C06654153F10003094211
:104BA00018BF46F0010613F4007F0BD14FEA033122
:104BB0004FEA0530340341EA155140EA16506FF0D0
:104BC00003020AE04FEAC3214FEAC520F40241EA9A
:104BD000555140EA56506FF0020202EB2E4201EBB3
:104BE000025585EACE710AD05FEA440C18BF24F062
:104BF000004450F1000041F1000120EAD47040F27D
:104C0000FE7C624500D270BDA84214BF4FF08044C4
:104C10004FF04044002E08BF0024BEF1806FA8BFB3
:104C2000A1F1C041BDE8704080F282804FF00000E9
:104C300001F1C04101F0004170479EEA0C0F0CEAFF
:104C4000131518BF95EA0C0F06D04FF0000081EA4B
:104C5000030E0EF0004170BD00F01CF88900013E0B
:104C600000F007B800F009B84FEA430C5FEA5C5C5B
:104C700008D081EA030100F05BB84FEA410C5FEA1B
:104C80005C5CF6D14FF00000014970470000FF075F
:104C90000000F87F0EF1020E2EF0030E5EF8046B9A
:104CA000364205D4012A43EB030515F5001F12D83F
:104CB000012841EB010C1CF5001F0CD80ED14FEA66
:104CC000D17C15F5001F0CEB4C0C0CF1020C08BF4D
:104CD0004CEBD37C04E04FF0080C01E04FEAD37CAE
:104CE0000CEB4C0526FA05F606F00706B6F1040CA7
:104CF00006D20EEB860CBDE870404CF0010C60470C
:104D0000DFE80CF0090B02024FF000414FF0000009
:104D1000A1F5002170BD19461046012851EB010490
:104D200018BFD4F5001484BF002001F0004170BD0D
:104D30000808A0F500114FEA3101704710B591EA5B
:104D4000030F48BF83F000433FF546AE841A71EB72
:104D5000030C07D212198CF0004C43EB0C03001B20
:104D600061EB0C01DFF8A4E14FEA1154A4EB135CF2
:104D70001EEA430F18BF9EEA445F00F0B08023EAAA
:104D80006E03524221EA0451C3EB6E0338BF5B1E2F
:104D9000DCF1200E25D322FA0CFE10EB0E0043FAB4
:104DA0000CFE41EB0E01CCF1200E03FA0EFE10EBCF
:104DB0000E0051F10001CCF1200E29D412FA0EF2AE
:104DC00001EB0451BDE8104058BF7047401C1CBFA8
:104DD000B2F1004F704700280CBF491C20F00100C1
:104DE000704712EB020E43EB030218BF4FF0010EA7
:104DF0004EEA4202ACF1200CDCF11E0E54D943FA0B
:104E00000CFE10EB0E0051F1FF31CCF11E0ED5D58A
:104E10000EF1010E12FA0EFE404141EB010101EBD1
:104E2000445C5FEA5C5C10D910EBDE7001EB04516E
:104E300038BFBEF1004FBDE8104018BF70470028D2
:104E40000CBF491C20F00100704730D24FEAD42C2F
:104E500011F5001124F400641BD0B1FA81F20B3A71
:104E6000A41AA41ED2F12003914030FA03F319438F
:104E7000904001EBCC71002C01EB0451BDE81040D7
:104E8000A8BF704701F1C0414FF0000001F00041A0
:104E90007047B0FA80F310FA03F100D110BDE41AA4
:104EA000173C4805C90AE4E701EB045110BD49105D
:104EB00001EB0451BDE810404FEA300002E04FF032
:104EC000000170474A0008BF0042F8D0B2F5001F49
:104ED00028BF704701F000414FF0000070479EEA84
:104EE000445F07D011EA5E0FBDE8104004BF002107
:104EF00000207047BDE8104070B5FFF7CBFE00BF43
:104F000040DFF63E83F00041104670470000E0FFAE
:104F100043004FEAD30C4FEA3C0C43401FBF40070D
:104F20000CF1605113F0FE4F70471CF0006F03D17D
:104F300000200CF0004170470CF0004343EA507031
:104F400010B540EACC0000F00EF800BF000000925F
:104F50004FEA0001FFF7ECBE4FF000414FF00000B8
:104F6000A1F5002170470EF1020E2EF0030E5EF83F
:104F7000044B244204D44FEA4102B2F17F4F11D8CE
:104F80004FEA4003B3F17F4F0CD80ED14FEAD07CEB
:104F9000B2F17F4F0CEB4C0C0CF1020C08BF4CEB48
:104FA000D17C04E04FF0080C01E04FEAD17C0CEB1F
:104FB0004C0324FA03F404F00704B4F1040C06D201
:104FC0000EEB840CBDE810404CF0010C6047DFE8AC
:104FD0000CF0070802024FF00040A0F5800010BD61
:104FE0000846420018BFD2F1807288BF00F000402E
:104FF00010BD4FF04070E1EE100A7047FF2141EA0A
:10500000D050C00570470000000000000000002FD5
:10501000000000000700070000147F147F14002424
:105020002A7F2A124026166864020036495522500B
:1050300000000503000000001C2241000000412286
:105040001C000014083E08140008083E0808000070
:1050500000A0600000080808080800006060000068
:10506000002010080402003E5149453E0000427FE6
:105070004000004261514946002141454B31001832
:1050800014127F10002745454539003C4A494930F4
:1050900000017109050300364949493600064949AE
:1050A000291E0000363600000000563600000008B9
:1050B0001422410000141414141400004122140896
:1050C00000020151090600324959513E007C12117B
:1050D000127C007F49494936003E41414122007F10
:1050E0004141221C007F49494941007F09090901CA
:1050F000003E4149497A007F0808087F0000417F4F
:105100004100002040413F01007F08142241007F00
:1051100040404040007F020C027F007F0408107F67
:10512000003E4141413E007F09090906003E4151D0
:10513000215E007F0919294600464949493100018D
:10514000017F0101003F4040403F001F2040201FE1
:10515000003F4038403F00631408146300070870A4
:10516000080700615149454300007F414100005557
:105170002A552A55000041417F0000040201020423
:105180000040404040400000010204000020545410
:105190005478007F48444438003844444420003860
:1051A0004444487F00385454541800087E090102D2
:1051B0000018A4A4A47C007F080404780000447DA7
:1051C0004000004080847D00007F102844000000E3
:1051D000417F4000007C04180478007C08040478B7
:1051E00000384444443800FC2424241800182424A3
:1051F00018FC007C0804040800485454542000049F
:105200003F444020003C4040207C001C2040201CAB
:10521000003C4030403C004428102844001CA0A022
:10522000A07C004464544C4414141414141400005E
:10523000000000000000000000000000FC00000072
:10524000000002000000000C020C02000000000040
:10525000000090D0BCD0BC900003000300001824D4
:10526000FE448C000302070201001824D8B04C80D1
:10527000000300010201C038E438E000010202012D
:10528000020208060000000000000000000000000C
:1052900000F80402000000010204000204F800000B
:1052A0000004020100009060F8609000000001001E
:1052B00000002020FC202000000001000000000071
:1052C0000000000008060000000020202020200030
:1052D00000000000000000000000000000020000CC
:1052E00000000080601C0200040300000000F804BD
:1052F0000404F8000102020201000008FC000000A2
:105300000002030200001884442418000302020271
:10531000020008042424D80001020202010040B067
:1053200088FC80000000000302003C242424C40008
:10533000010202020100F824242CC0000102020232
:1053400001000C04E41C0400000003000000D82449
:105350002424D80001020202010038444444F80029
:105360000003020201000000100000000000020023
:1053700000000000200000000000060000000020E7
:10538000508804020000000001029090909090006C
:10539000000000000000000204885020000201000C
:1053A00000001804C4241800000002000000F804E3
:1053B000E494F80001020202020000E09CF0800088
:1053C00002030000030204FC2424D80002030202AA
:1053D0000100F80404040C0001020202010004FCB4
:1053E0000404F80002030202010004FC24740C000F
:1053F00002030202030004FC24740C0002030200F6
:105400000000F0080444CC4000010202010004FC4A
:105410002020FC040203000003020404FC04040036
:10542000020203020200000404FC04040604040354
:10543000000004FC24D00C0402030200030204FC5C
:1054400004000000020302020203FC3CC03CFC001A
:1054500003000300030004FC30C4FC040203020048
:105460000300F8040404F80001020202010004FC35
:1054700024241800020302000000F8848404F800C9
:1054800001020207050004FC2464980002030200E4
:105490000302182424448C000302020201000C04BD
:1054A000FC040C0000020302000004FC0000FC04E9
:1054B000000102020100047C80E01C0400000300E3
:1054C00000001CE03CE01C00000300030000049C02
:1054D000609C0400020300030200041CE01C0400A2
:1054E0000002030200000C84641C04000203020298
:1054F00003000000FE020200000007040400000E8A
:1055000030C00000000000010200000202FE0000A6
:105510000004040700000004020400000000000072
:10552000000000000000000008080808080800004B
:10553000020000000000000000000040A0A0C00029
:1055400000010202030204FC2020C000000302024A
:10555000010000C02020600000010202020000C023
:105560002024FC0000010202030200C0A0A0C00031
:105570000001020202000020F824240400020302B9
:1055800002000040A0A0602000070A0A0A0404FCF0
:105590002020C0000203020003020020E4000000FB
:1055A000000203020000000020E4000008080807D1
:1055B000000004FC80E02020020302000302040437
:1055C000FC000000020203020200E020E020C00014
:1055D00003000300030020E02020C00002030200BB
:1055E000030200C02020C00000010202010020E0F0
:1055F0002020C000080F0A02010000C02020E000A7
:105600000001020A0F0820E04020200002030200EF
:1056100000000060A0A020000002020203000020A1
:10562000F820000000000102020020E00020E0005D
:1056300000010202030220E020806020000003013C
:1056400000006080E0806000000300030000206034
:105650008060200002030003020020E02080602020
:105660000808070100000020A060200000020302DB
:105670000200000020DE020000000007040000001D
:1056800000FF00000000000F00000002DE2000000C
:1056900000040700000002010204040200000000F0
:1056A00000000000000000000000000000000000FA
:1056B0000000000000F8000000000000003330008F
:1056C000000000100C06100C060000000000000096
:1056D000000040C07840C0784000043F04043F040C
:1056E0000400007088FC08300000001820FF211E14
:1056F0000000F008F000E018000000211C031E214B
:105700001E0000F00888700000001E2123241927C5
:10571000211010160E000000000000000000000024
:105720000000000000E0180402000000000718203C
:10573000400000020418E0000000004020180700AC
:105740000000404080F0804040000202010F010252
:105750000200000000F0000000000101011F010133
:105760000100000000000000000080B07000000098
:105770000000000000000000000000010101010124
:1057800001010000000000000000003030000000B7
:10579000000000000000806018040060180601008E
:1057A000000000E010080810E000000F102020109A
:1057B0000F00001010F8000000000020203F202003
:1057C000000000700808088870000030282422219A
:1057D0003000003008888848300000182020201150
:1057E0000E000000C02010F8000000070424243F31
:1057F000240000F8088888080800001921202011DA
:105800000E0000E0108888180000000F1120201101
:105810000E0000380808C83808000000003F0000EB
:1058200000000070880808887000001C22212122D6
:105830001C0000E010080810E000000031222211D6
:105840000F00000000C0C000000000000030300069
:1058500000000000008000000000000080600000E8
:105860000000000080402010080000010204081021
:105870002000404040404040400004040404040430
:1058800004000008102040800000002010080402DE
:105890000100007048080808F000000000303601E0
:1058A0000000C030C828E810E0000718272423149F
:1058B0000B000000C038E0000000203C230202275B
:1058C000382008F8888888700000203F20202011A8
:1058D0000E00C030080808083800071820202010E3
:1058E000080008F808080810E000203F20202010D9
:1058F0000F0008F88888E8081000203F20202320A7
:10590000180008F88888E8081000203F20000300ED
:105910000000C03008080838000007182020221EA8
:10592000020008F808000008F808203F21010121C2
:105930003F20000808F8080800000020203F202031
:10594000000000000808F8080800C08080807F0080
:10595000000008F888C028180800203F20012638D9
:10596000200008F8080000000000203F2020202030
:10597000300008F8F800F8F80800203F003F003F2A
:10598000200008F830C00008F808203F2000071861
:105990003F00E01008080810E0000F102020201041
:1059A0000F0008F808080808F000203F2101010155
:1059B0000000E01008080810E0000F1824243850F8
:1059C0004F0008F8888888887000203F2000030C6A
:1059D0003020007088080808380000382021212273
:1059E0001C00180808F8080818000000203F2000D4
:1059F000000008F808000008F808001F20202020F8
:105A00001F000878880000C83808000007380E0119
:105A10000000F80800F80008F800033C0700073C05
:105A20000300081868808068180820302C03032CB5
:105A300030200838C800C83808000000203F200087
:105A4000000010080808C838080020382621202047
:105A50001800000000FE020202000000007F40402B
:105A60004000000C30C000000000000000010638BB
:105A7000C00000020202FE000000004040407F0023
:105A80000000000004020202040000000000000008
:105A90000000000000000000000080808080808006
:105AA00080800002020400000000000000000000EE
:105AB0000000000080808080000000192422222243
:105AC0003F2008F8008080000000003F11202011D6
:105AD0000E000000008080800000000E11202020B9
